{
  "_format": "hh-sol-artifact-1",
  "contractName": "OpenFormat",
  "sourceName": "contracts/OpenFormat.sol",
  "abi": [
    {
      "inputs": [
        {
          "internalType": "string",
          "name": "name_",
          "type": "string"
        },
        {
          "internalType": "string",
          "name": "symbol_",
          "type": "string"
        },
        {
          "internalType": "string",
          "name": "metadataURI_",
          "type": "string"
        },
        {
          "internalType": "uint256",
          "name": "maxSupply_",
          "type": "uint256"
        },
        {
          "internalType": "uint256",
          "name": "mintingPrice_",
          "type": "uint256"
        }
      ],
      "stateMutability": "nonpayable",
      "type": "constructor"
    },
    {
      "anonymous": false,
      "inputs": [
        {
          "indexed": true,
          "internalType": "address",
          "name": "owner",
          "type": "address"
        },
        {
          "indexed": true,
          "internalType": "address",
          "name": "approved",
          "type": "address"
        },
        {
          "indexed": true,
          "internalType": "uint256",
          "name": "tokenId",
          "type": "uint256"
        }
      ],
      "name": "Approval",
      "type": "event"
    },
    {
      "anonymous": false,
      "inputs": [
        {
          "indexed": true,
          "internalType": "address",
          "name": "owner",
          "type": "address"
        },
        {
          "indexed": true,
          "internalType": "address",
          "name": "operator",
          "type": "address"
        },
        {
          "indexed": false,
          "internalType": "bool",
          "name": "approved",
          "type": "bool"
        }
      ],
      "name": "ApprovalForAll",
      "type": "event"
    },
    {
      "anonymous": false,
      "inputs": [
        {
          "indexed": true,
          "internalType": "address",
          "name": "contractAddress",
          "type": "address"
        }
      ],
      "name": "ApprovedDepositExtensionSet",
      "type": "event"
    },
    {
      "anonymous": false,
      "inputs": [
        {
          "indexed": true,
          "internalType": "uint256",
          "name": "amount",
          "type": "uint256"
        }
      ],
      "name": "ApprovedRoyaltyExtensionCustomPctSet",
      "type": "event"
    },
    {
      "anonymous": false,
      "inputs": [
        {
          "indexed": true,
          "internalType": "address",
          "name": "contractAddress",
          "type": "address"
        }
      ],
      "name": "ApprovedRoyaltyExtensionSet",
      "type": "event"
    },
    {
      "anonymous": false,
      "inputs": [
        {
          "indexed": true,
          "internalType": "string",
          "name": "commissionType",
          "type": "string"
        },
        {
          "indexed": true,
          "internalType": "address",
          "name": "to",
          "type": "address"
        },
        {
          "indexed": false,
          "internalType": "uint256",
          "name": "tokenId",
          "type": "uint256"
        },
        {
          "indexed": false,
          "internalType": "uint256",
          "name": "amount",
          "type": "uint256"
        }
      ],
      "name": "CommissionPaid",
      "type": "event"
    },
    {
      "anonymous": false,
      "inputs": [
        {
          "indexed": true,
          "internalType": "address",
          "name": "creator",
          "type": "address"
        },
        {
          "indexed": false,
          "internalType": "string",
          "name": "metadataURI",
          "type": "string"
        },
        {
          "indexed": false,
          "internalType": "string",
          "name": "symbol",
          "type": "string"
        },
        {
          "indexed": false,
          "internalType": "string",
          "name": "name",
          "type": "string"
        },
        {
          "indexed": false,
          "internalType": "uint256",
          "name": "maxSupply",
          "type": "uint256"
        },
        {
          "indexed": false,
          "internalType": "uint256",
          "name": "mintingPrice",
          "type": "uint256"
        }
      ],
      "name": "Created",
      "type": "event"
    },
    {
      "anonymous": false,
      "inputs": [
        {
          "indexed": true,
          "internalType": "contract IERC20",
          "name": "token",
          "type": "address"
        },
        {
          "indexed": false,
          "internalType": "address",
          "name": "to",
          "type": "address"
        },
        {
          "indexed": false,
          "internalType": "uint256",
          "name": "amount",
          "type": "uint256"
        }
      ],
      "name": "ERC20PaymentReleased",
      "type": "event"
    },
    {
      "anonymous": false,
      "inputs": [
        {
          "indexed": false,
          "internalType": "contract IERC20",
          "name": "token",
          "type": "address"
        },
        {
          "indexed": true,
          "internalType": "uint256",
          "name": "tokenId",
          "type": "uint256"
        },
        {
          "indexed": true,
          "internalType": "uint256",
          "name": "amount",
          "type": "uint256"
        }
      ],
      "name": "ERC20TokenBalanceWithdrawn",
      "type": "event"
    },
    {
      "anonymous": false,
      "inputs": [
        {
          "indexed": true,
          "internalType": "contract IERC20",
          "name": "token",
          "type": "address"
        },
        {
          "indexed": true,
          "internalType": "uint256",
          "name": "amount",
          "type": "uint256"
        }
      ],
      "name": "ERC20TotalDepositedAmountUpdated",
      "type": "event"
    },
    {
      "anonymous": false,
      "inputs": [
        {
          "indexed": true,
          "internalType": "uint256",
          "name": "amount",
          "type": "uint256"
        }
      ],
      "name": "MaxSupplySet",
      "type": "event"
    },
    {
      "anonymous": false,
      "inputs": [
        {
          "indexed": true,
          "internalType": "uint256",
          "name": "newTokenId",
          "type": "uint256"
        },
        {
          "indexed": true,
          "internalType": "address",
          "name": "owner",
          "type": "address"
        }
      ],
      "name": "Minted",
      "type": "event"
    },
    {
      "anonymous": false,
      "inputs": [
        {
          "indexed": true,
          "internalType": "uint256",
          "name": "amount",
          "type": "uint256"
        }
      ],
      "name": "MintingPriceSet",
      "type": "event"
    },
    {
      "anonymous": false,
      "inputs": [
        {
          "indexed": true,
          "internalType": "address",
          "name": "previousOwner",
          "type": "address"
        },
        {
          "indexed": true,
          "internalType": "address",
          "name": "newOwner",
          "type": "address"
        }
      ],
      "name": "OwnershipTransferred",
      "type": "event"
    },
    {
      "anonymous": false,
      "inputs": [
        {
          "indexed": false,
          "internalType": "bool",
          "name": "isPaused",
          "type": "bool"
        }
      ],
      "name": "PausedStateSet",
      "type": "event"
    },
    {
      "anonymous": false,
      "inputs": [
        {
          "indexed": false,
          "internalType": "address",
          "name": "account",
          "type": "address"
        },
        {
          "indexed": false,
          "internalType": "uint256",
          "name": "shares",
          "type": "uint256"
        }
      ],
      "name": "PayeeAdded",
      "type": "event"
    },
    {
      "anonymous": false,
      "inputs": [
        {
          "indexed": false,
          "internalType": "address",
          "name": "account",
          "type": "address"
        },
        {
          "indexed": false,
          "internalType": "uint256",
          "name": "shares",
          "type": "uint256"
        }
      ],
      "name": "PayeeRemoved",
      "type": "event"
    },
    {
      "anonymous": false,
      "inputs": [
        {
          "indexed": false,
          "internalType": "address",
          "name": "from",
          "type": "address"
        },
        {
          "indexed": false,
          "internalType": "uint256",
          "name": "amount",
          "type": "uint256"
        }
      ],
      "name": "PaymentReceived",
      "type": "event"
    },
    {
      "anonymous": false,
      "inputs": [
        {
          "indexed": false,
          "internalType": "address",
          "name": "to",
          "type": "address"
        },
        {
          "indexed": false,
          "internalType": "uint256",
          "name": "amount",
          "type": "uint256"
        }
      ],
      "name": "PaymentReleased",
      "type": "event"
    },
    {
      "anonymous": false,
      "inputs": [
        {
          "indexed": true,
          "internalType": "uint256",
          "name": "amount",
          "type": "uint256"
        }
      ],
      "name": "PrimaryCommissionSet",
      "type": "event"
    },
    {
      "anonymous": false,
      "inputs": [
        {
          "indexed": true,
          "internalType": "address",
          "name": "receiver",
          "type": "address"
        },
        {
          "indexed": true,
          "internalType": "uint256",
          "name": "percentage",
          "type": "uint256"
        }
      ],
      "name": "RoyaltiesSet",
      "type": "event"
    },
    {
      "anonymous": false,
      "inputs": [
        {
          "indexed": true,
          "internalType": "address",
          "name": "recipient",
          "type": "address"
        },
        {
          "indexed": true,
          "internalType": "uint256",
          "name": "amount",
          "type": "uint256"
        }
      ],
      "name": "RoyaltyPaid",
      "type": "event"
    },
    {
      "anonymous": false,
      "inputs": [
        {
          "indexed": true,
          "internalType": "uint256",
          "name": "tokenId",
          "type": "uint256"
        },
        {
          "indexed": false,
          "internalType": "uint256",
          "name": "salePrice",
          "type": "uint256"
        }
      ],
      "name": "SalePriceSet",
      "type": "event"
    },
    {
      "anonymous": false,
      "inputs": [
        {
          "indexed": true,
          "internalType": "uint256",
          "name": "amount",
          "type": "uint256"
        }
      ],
      "name": "SecondaryCommissionSet",
      "type": "event"
    },
    {
      "anonymous": false,
      "inputs": [
        {
          "indexed": true,
          "internalType": "uint256",
          "name": "tokenId",
          "type": "uint256"
        },
        {
          "indexed": true,
          "internalType": "address",
          "name": "oldOwner",
          "type": "address"
        },
        {
          "indexed": true,
          "internalType": "address",
          "name": "newOwner",
          "type": "address"
        },
        {
          "indexed": false,
          "internalType": "uint256",
          "name": "salePrice",
          "type": "uint256"
        }
      ],
      "name": "Sold",
      "type": "event"
    },
    {
      "anonymous": false,
      "inputs": [
        {
          "indexed": true,
          "internalType": "uint256",
          "name": "tokenId",
          "type": "uint256"
        },
        {
          "indexed": true,
          "internalType": "uint256",
          "name": "amount",
          "type": "uint256"
        }
      ],
      "name": "TokenBalanceWithdrawn",
      "type": "event"
    },
    {
      "anonymous": false,
      "inputs": [
        {
          "indexed": true,
          "internalType": "uint256",
          "name": "amount",
          "type": "uint256"
        }
      ],
      "name": "TotalDepositedAmountUpdated",
      "type": "event"
    },
    {
      "anonymous": false,
      "inputs": [
        {
          "indexed": true,
          "internalType": "address",
          "name": "from",
          "type": "address"
        },
        {
          "indexed": true,
          "internalType": "address",
          "name": "to",
          "type": "address"
        },
        {
          "indexed": true,
          "internalType": "uint256",
          "name": "tokenId",
          "type": "uint256"
        }
      ],
      "name": "Transfer",
      "type": "event"
    },
    {
      "inputs": [
        {
          "internalType": "address",
          "name": "",
          "type": "address"
        }
      ],
      "name": "_shares",
      "outputs": [
        {
          "internalType": "uint256",
          "name": "",
          "type": "uint256"
        }
      ],
      "stateMutability": "view",
      "type": "function"
    },
    {
      "inputs": [
        {
          "internalType": "address[]",
          "name": "accounts",
          "type": "address[]"
        },
        {
          "internalType": "uint256[]",
          "name": "shares_",
          "type": "uint256[]"
        }
      ],
      "name": "allocateShares",
      "outputs": [],
      "stateMutability": "nonpayable",
      "type": "function"
    },
    {
      "inputs": [
        {
          "internalType": "address",
          "name": "to",
          "type": "address"
        },
        {
          "internalType": "uint256",
          "name": "tokenId",
          "type": "uint256"
        }
      ],
      "name": "approve",
      "outputs": [],
      "stateMutability": "nonpayable",
      "type": "function"
    },
    {
      "inputs": [],
      "name": "approvedDepositExtension",
      "outputs": [
        {
          "internalType": "address",
          "name": "",
          "type": "address"
        }
      ],
      "stateMutability": "view",
      "type": "function"
    },
    {
      "inputs": [],
      "name": "approvedRoyaltyExtension",
      "outputs": [
        {
          "internalType": "address",
          "name": "",
          "type": "address"
        }
      ],
      "stateMutability": "view",
      "type": "function"
    },
    {
      "inputs": [
        {
          "internalType": "address",
          "name": "owner",
          "type": "address"
        }
      ],
      "name": "balanceOf",
      "outputs": [
        {
          "internalType": "uint256",
          "name": "",
          "type": "uint256"
        }
      ],
      "stateMutability": "view",
      "type": "function"
    },
    {
      "inputs": [
        {
          "internalType": "uint256",
          "name": "tokenId",
          "type": "uint256"
        }
      ],
      "name": "burn",
      "outputs": [],
      "stateMutability": "nonpayable",
      "type": "function"
    },
    {
      "inputs": [
        {
          "internalType": "uint256",
          "name": "tokenId",
          "type": "uint256"
        },
        {
          "internalType": "address",
          "name": "commissionAddress",
          "type": "address"
        }
      ],
      "name": "buy",
      "outputs": [
        {
          "internalType": "bool",
          "name": "",
          "type": "bool"
        }
      ],
      "stateMutability": "payable",
      "type": "function"
    },
    {
      "inputs": [
        {
          "internalType": "uint256",
          "name": "tokenId",
          "type": "uint256"
        }
      ],
      "name": "buy",
      "outputs": [
        {
          "internalType": "bool",
          "name": "",
          "type": "bool"
        }
      ],
      "stateMutability": "payable",
      "type": "function"
    },
    {
      "inputs": [],
      "name": "contractCreator",
      "outputs": [
        {
          "internalType": "address",
          "name": "",
          "type": "address"
        }
      ],
      "stateMutability": "view",
      "type": "function"
    },
    {
      "inputs": [
        {
          "internalType": "uint256",
          "name": "tokenId",
          "type": "uint256"
        }
      ],
      "name": "creatorOf",
      "outputs": [
        {
          "internalType": "address",
          "name": "",
          "type": "address"
        }
      ],
      "stateMutability": "view",
      "type": "function"
    },
    {
      "inputs": [
        {
          "internalType": "address",
          "name": "contractAddress",
          "type": "address"
        },
        {
          "internalType": "contract IERC20",
          "name": "token",
          "type": "address"
        },
        {
          "internalType": "uint256",
          "name": "amount",
          "type": "uint256"
        }
      ],
      "name": "deposit",
      "outputs": [],
      "stateMutability": "payable",
      "type": "function"
    },
    {
      "inputs": [
        {
          "internalType": "address",
          "name": "contractAddress",
          "type": "address"
        }
      ],
      "name": "deposit",
      "outputs": [],
      "stateMutability": "payable",
      "type": "function"
    },
    {
      "inputs": [
        {
          "internalType": "uint256",
          "name": "tokenId",
          "type": "uint256"
        }
      ],
      "name": "getApproved",
      "outputs": [
        {
          "internalType": "address",
          "name": "",
          "type": "address"
        }
      ],
      "stateMutability": "view",
      "type": "function"
    },
    {
      "inputs": [],
      "name": "getMaxSupply",
      "outputs": [
        {
          "internalType": "uint256",
          "name": "",
          "type": "uint256"
        }
      ],
      "stateMutability": "view",
      "type": "function"
    },
    {
      "inputs": [],
      "name": "getPrimaryCommissionPct",
      "outputs": [
        {
          "internalType": "uint256",
          "name": "",
          "type": "uint256"
        }
      ],
      "stateMutability": "view",
      "type": "function"
    },
    {
      "inputs": [],
      "name": "getSecondaryCommissionPct",
      "outputs": [
        {
          "internalType": "uint256",
          "name": "",
          "type": "uint256"
        }
      ],
      "stateMutability": "view",
      "type": "function"
    },
    {
      "inputs": [
        {
          "internalType": "address",
          "name": "caller",
          "type": "address"
        },
        {
          "internalType": "uint256",
          "name": "tokenId",
          "type": "uint256"
        }
      ],
      "name": "getSingleTokenBalance",
      "outputs": [
        {
          "internalType": "uint256",
          "name": "",
          "type": "uint256"
        }
      ],
      "stateMutability": "view",
      "type": "function"
    },
    {
      "inputs": [
        {
          "internalType": "contract IERC20",
          "name": "token",
          "type": "address"
        },
        {
          "internalType": "address",
          "name": "caller",
          "type": "address"
        },
        {
          "internalType": "uint256",
          "name": "tokenId",
          "type": "uint256"
        }
      ],
      "name": "getSingleTokenBalance",
      "outputs": [
        {
          "internalType": "uint256",
          "name": "",
          "type": "uint256"
        }
      ],
      "stateMutability": "view",
      "type": "function"
    },
    {
      "inputs": [
        {
          "internalType": "uint256",
          "name": "tokenId",
          "type": "uint256"
        }
      ],
      "name": "getTokenSalePrice",
      "outputs": [
        {
          "internalType": "uint256",
          "name": "",
          "type": "uint256"
        }
      ],
      "stateMutability": "view",
      "type": "function"
    },
    {
      "inputs": [],
      "name": "getTotalSupply",
      "outputs": [
        {
          "internalType": "uint256",
          "name": "",
          "type": "uint256"
        }
      ],
      "stateMutability": "view",
      "type": "function"
    },
    {
      "inputs": [
        {
          "internalType": "address",
          "name": "owner",
          "type": "address"
        },
        {
          "internalType": "address",
          "name": "operator",
          "type": "address"
        }
      ],
      "name": "isApprovedForAll",
      "outputs": [
        {
          "internalType": "bool",
          "name": "",
          "type": "bool"
        }
      ],
      "stateMutability": "view",
      "type": "function"
    },
    {
      "inputs": [],
      "name": "metadataURI",
      "outputs": [
        {
          "internalType": "string",
          "name": "",
          "type": "string"
        }
      ],
      "stateMutability": "view",
      "type": "function"
    },
    {
      "inputs": [],
      "name": "mint",
      "outputs": [
        {
          "internalType": "uint256",
          "name": "newTokenId",
          "type": "uint256"
        }
      ],
      "stateMutability": "payable",
      "type": "function"
    },
    {
      "inputs": [
        {
          "internalType": "address",
          "name": "commissionAddress",
          "type": "address"
        }
      ],
      "name": "mint",
      "outputs": [
        {
          "internalType": "uint256",
          "name": "newTokenId",
          "type": "uint256"
        }
      ],
      "stateMutability": "payable",
      "type": "function"
    },
    {
      "inputs": [],
      "name": "mintingPrice",
      "outputs": [
        {
          "internalType": "uint256",
          "name": "",
          "type": "uint256"
        }
      ],
      "stateMutability": "view",
      "type": "function"
    },
    {
      "inputs": [],
      "name": "name",
      "outputs": [
        {
          "internalType": "string",
          "name": "",
          "type": "string"
        }
      ],
      "stateMutability": "view",
      "type": "function"
    },
    {
      "inputs": [],
      "name": "owner",
      "outputs": [
        {
          "internalType": "address",
          "name": "",
          "type": "address"
        }
      ],
      "stateMutability": "view",
      "type": "function"
    },
    {
      "inputs": [
        {
          "internalType": "uint256",
          "name": "tokenId",
          "type": "uint256"
        }
      ],
      "name": "ownerOf",
      "outputs": [
        {
          "internalType": "address",
          "name": "",
          "type": "address"
        }
      ],
      "stateMutability": "view",
      "type": "function"
    },
    {
      "inputs": [],
      "name": "paused",
      "outputs": [
        {
          "internalType": "bool",
          "name": "",
          "type": "bool"
        }
      ],
      "stateMutability": "view",
      "type": "function"
    },
    {
      "inputs": [
        {
          "internalType": "uint256",
          "name": "index",
          "type": "uint256"
        }
      ],
      "name": "payee",
      "outputs": [
        {
          "internalType": "address",
          "name": "",
          "type": "address"
        }
      ],
      "stateMutability": "view",
      "type": "function"
    },
    {
      "inputs": [],
      "name": "primaryCommissionPct",
      "outputs": [
        {
          "internalType": "uint256",
          "name": "",
          "type": "uint256"
        }
      ],
      "stateMutability": "view",
      "type": "function"
    },
    {
      "inputs": [
        {
          "internalType": "address payable",
          "name": "account",
          "type": "address"
        }
      ],
      "name": "release",
      "outputs": [],
      "stateMutability": "nonpayable",
      "type": "function"
    },
    {
      "inputs": [
        {
          "internalType": "contract IERC20",
          "name": "token",
          "type": "address"
        },
        {
          "internalType": "address",
          "name": "account",
          "type": "address"
        }
      ],
      "name": "release",
      "outputs": [],
      "stateMutability": "nonpayable",
      "type": "function"
    },
    {
      "inputs": [
        {
          "internalType": "contract IERC20",
          "name": "token",
          "type": "address"
        },
        {
          "internalType": "address",
          "name": "account",
          "type": "address"
        }
      ],
      "name": "released",
      "outputs": [
        {
          "internalType": "uint256",
          "name": "",
          "type": "uint256"
        }
      ],
      "stateMutability": "view",
      "type": "function"
    },
    {
      "inputs": [
        {
          "internalType": "address",
          "name": "account",
          "type": "address"
        }
      ],
      "name": "released",
      "outputs": [
        {
          "internalType": "uint256",
          "name": "",
          "type": "uint256"
        }
      ],
      "stateMutability": "view",
      "type": "function"
    },
    {
      "inputs": [],
      "name": "renounceOwnership",
      "outputs": [],
      "stateMutability": "nonpayable",
      "type": "function"
    },
    {
      "inputs": [
        {
          "internalType": "uint256",
          "name": "",
          "type": "uint256"
        },
        {
          "internalType": "uint256",
          "name": "value",
          "type": "uint256"
        }
      ],
      "name": "royaltyInfo",
      "outputs": [
        {
          "internalType": "address",
          "name": "receiver",
          "type": "address"
        },
        {
          "internalType": "uint256",
          "name": "royaltyAmount",
          "type": "uint256"
        }
      ],
      "stateMutability": "view",
      "type": "function"
    },
    {
      "inputs": [
        {
          "internalType": "address",
          "name": "from",
          "type": "address"
        },
        {
          "internalType": "address",
          "name": "to",
          "type": "address"
        },
        {
          "internalType": "uint256",
          "name": "tokenId",
          "type": "uint256"
        }
      ],
      "name": "safeTransferFrom",
      "outputs": [],
      "stateMutability": "nonpayable",
      "type": "function"
    },
    {
      "inputs": [
        {
          "internalType": "address",
          "name": "from",
          "type": "address"
        },
        {
          "internalType": "address",
          "name": "to",
          "type": "address"
        },
        {
          "internalType": "uint256",
          "name": "tokenId",
          "type": "uint256"
        },
        {
          "internalType": "bytes",
          "name": "_data",
          "type": "bytes"
        }
      ],
      "name": "safeTransferFrom",
      "outputs": [],
      "stateMutability": "nonpayable",
      "type": "function"
    },
    {
      "inputs": [],
      "name": "secondaryCommissionPct",
      "outputs": [
        {
          "internalType": "uint256",
          "name": "",
          "type": "uint256"
        }
      ],
      "stateMutability": "view",
      "type": "function"
    },
    {
      "inputs": [
        {
          "internalType": "address",
          "name": "operator",
          "type": "address"
        },
        {
          "internalType": "bool",
          "name": "approved",
          "type": "bool"
        }
      ],
      "name": "setApprovalForAll",
      "outputs": [],
      "stateMutability": "nonpayable",
      "type": "function"
    },
    {
      "inputs": [
        {
          "internalType": "address",
          "name": "contractAddress_",
          "type": "address"
        }
      ],
      "name": "setApprovedDepositExtension",
      "outputs": [],
      "stateMutability": "nonpayable",
      "type": "function"
    },
    {
      "inputs": [
        {
          "internalType": "address",
          "name": "contractAddress_",
          "type": "address"
        }
      ],
      "name": "setApprovedRoyaltyExtension",
      "outputs": [],
      "stateMutability": "nonpayable",
      "type": "function"
    },
    {
      "inputs": [
        {
          "internalType": "uint256",
          "name": "amount_",
          "type": "uint256"
        }
      ],
      "name": "setApprovedRoyaltyExtensionCustomPct",
      "outputs": [],
      "stateMutability": "nonpayable",
      "type": "function"
    },
    {
      "inputs": [
        {
          "internalType": "uint256",
          "name": "_amount",
          "type": "uint256"
        }
      ],
      "name": "setMaxSupply",
      "outputs": [],
      "stateMutability": "nonpayable",
      "type": "function"
    },
    {
      "inputs": [
        {
          "internalType": "uint256",
          "name": "_amount",
          "type": "uint256"
        }
      ],
      "name": "setMintingPrice",
      "outputs": [],
      "stateMutability": "nonpayable",
      "type": "function"
    },
    {
      "inputs": [
        {
          "internalType": "uint256",
          "name": "amount_",
          "type": "uint256"
        }
      ],
      "name": "setPrimaryCommissionPct",
      "outputs": [],
      "stateMutability": "nonpayable",
      "type": "function"
    },
    {
      "inputs": [
        {
          "internalType": "address",
          "name": "royaltyReceiver",
          "type": "address"
        },
        {
          "internalType": "uint256",
          "name": "_royaltiesPct",
          "type": "uint256"
        }
      ],
      "name": "setRoyalties",
      "outputs": [],
      "stateMutability": "nonpayable",
      "type": "function"
    },
    {
      "inputs": [
        {
          "internalType": "uint256",
          "name": "amount_",
          "type": "uint256"
        }
      ],
      "name": "setSecondaryCommissionPct",
      "outputs": [],
      "stateMutability": "nonpayable",
      "type": "function"
    },
    {
      "inputs": [
        {
          "internalType": "uint256",
          "name": "tokenId",
          "type": "uint256"
        },
        {
          "internalType": "uint256",
          "name": "_salePrice",
          "type": "uint256"
        }
      ],
      "name": "setTokenSalePrice",
      "outputs": [],
      "stateMutability": "nonpayable",
      "type": "function"
    },
    {
      "inputs": [
        {
          "internalType": "address",
          "name": "account",
          "type": "address"
        }
      ],
      "name": "shares",
      "outputs": [
        {
          "internalType": "uint256",
          "name": "",
          "type": "uint256"
        }
      ],
      "stateMutability": "view",
      "type": "function"
    },
    {
      "inputs": [
        {
          "internalType": "bytes4",
          "name": "interfaceId",
          "type": "bytes4"
        }
      ],
      "name": "supportsInterface",
      "outputs": [
        {
          "internalType": "bool",
          "name": "",
          "type": "bool"
        }
      ],
      "stateMutability": "view",
      "type": "function"
    },
    {
      "inputs": [],
      "name": "symbol",
      "outputs": [
        {
          "internalType": "string",
          "name": "",
          "type": "string"
        }
      ],
      "stateMutability": "view",
      "type": "function"
    },
    {
      "inputs": [],
      "name": "togglePausedState",
      "outputs": [],
      "stateMutability": "nonpayable",
      "type": "function"
    },
    {
      "inputs": [
        {
          "internalType": "uint256",
          "name": "index",
          "type": "uint256"
        }
      ],
      "name": "tokenByIndex",
      "outputs": [
        {
          "internalType": "uint256",
          "name": "",
          "type": "uint256"
        }
      ],
      "stateMutability": "view",
      "type": "function"
    },
    {
      "inputs": [
        {
          "internalType": "address",
          "name": "owner",
          "type": "address"
        },
        {
          "internalType": "uint256",
          "name": "index",
          "type": "uint256"
        }
      ],
      "name": "tokenOfOwnerByIndex",
      "outputs": [
        {
          "internalType": "uint256",
          "name": "",
          "type": "uint256"
        }
      ],
      "stateMutability": "view",
      "type": "function"
    },
    {
      "inputs": [
        {
          "internalType": "uint256",
          "name": "tokenId",
          "type": "uint256"
        }
      ],
      "name": "tokenURI",
      "outputs": [
        {
          "internalType": "string",
          "name": "",
          "type": "string"
        }
      ],
      "stateMutability": "view",
      "type": "function"
    },
    {
      "inputs": [],
      "name": "totalDepositedAmount",
      "outputs": [
        {
          "internalType": "uint256",
          "name": "",
          "type": "uint256"
        }
      ],
      "stateMutability": "view",
      "type": "function"
    },
    {
      "inputs": [],
      "name": "totalDepositedReleased",
      "outputs": [
        {
          "internalType": "uint256",
          "name": "",
          "type": "uint256"
        }
      ],
      "stateMutability": "view",
      "type": "function"
    },
    {
      "inputs": [
        {
          "internalType": "contract IERC20",
          "name": "token",
          "type": "address"
        }
      ],
      "name": "totalReleased",
      "outputs": [
        {
          "internalType": "uint256",
          "name": "",
          "type": "uint256"
        }
      ],
      "stateMutability": "view",
      "type": "function"
    },
    {
      "inputs": [],
      "name": "totalReleased",
      "outputs": [
        {
          "internalType": "uint256",
          "name": "",
          "type": "uint256"
        }
      ],
      "stateMutability": "view",
      "type": "function"
    },
    {
      "inputs": [],
      "name": "totalSupply",
      "outputs": [
        {
          "internalType": "uint256",
          "name": "",
          "type": "uint256"
        }
      ],
      "stateMutability": "view",
      "type": "function"
    },
    {
      "inputs": [
        {
          "internalType": "address",
          "name": "from",
          "type": "address"
        },
        {
          "internalType": "address",
          "name": "to",
          "type": "address"
        },
        {
          "internalType": "uint256",
          "name": "tokenId",
          "type": "uint256"
        }
      ],
      "name": "transferFrom",
      "outputs": [],
      "stateMutability": "nonpayable",
      "type": "function"
    },
    {
      "inputs": [
        {
          "internalType": "address",
          "name": "newOwner",
          "type": "address"
        }
      ],
      "name": "transferOwnership",
      "outputs": [],
      "stateMutability": "nonpayable",
      "type": "function"
    },
    {
      "inputs": [
        {
          "internalType": "contract IERC20",
          "name": "token",
          "type": "address"
        },
        {
          "internalType": "address",
          "name": "contractAddress",
          "type": "address"
        },
        {
          "internalType": "uint256",
          "name": "tokenId",
          "type": "uint256"
        }
      ],
      "name": "withdraw",
      "outputs": [
        {
          "internalType": "uint256",
          "name": "",
          "type": "uint256"
        }
      ],
      "stateMutability": "payable",
      "type": "function"
    },
    {
      "inputs": [
        {
          "internalType": "address",
          "name": "contractAddress",
          "type": "address"
        },
        {
          "internalType": "uint256",
          "name": "tokenId",
          "type": "uint256"
        }
      ],
      "name": "withdraw",
      "outputs": [
        {
          "internalType": "uint256",
          "name": "",
          "type": "uint256"
        }
      ],
      "stateMutability": "payable",
      "type": "function"
    },
    {
      "stateMutability": "payable",
      "type": "receive"
    }
  ],
  "bytecode": "0x60806040523480156200001157600080fd5b506040516200951d3803806200951d833981810160405281019062000037919062000559565b848481600090805190602001906200005192919062000420565b5080600190805190602001906200006a92919062000420565b5050506200008d620000816200012e60201b60201c565b6200013660201b60201c565b620000a0336064620001fc60201b60201c565b8260219080519060200190620000b892919062000420565b5081601c8190555080601d819055503373ffffffffffffffffffffffffffffffffffffffff167fc1d48f1736a531302a78b74590d0777fc17b24d24429d1e262591b9c4a10e558848688601c54601d546040516200011b9594939291906200072b565b60405180910390a2505050505062000aae565b600033905090565b6000600c60009054906101000a900473ffffffffffffffffffffffffffffffffffffffff16905081600c60006101000a81548173ffffffffffffffffffffffffffffffffffffffff021916908373ffffffffffffffffffffffffffffffffffffffff1602179055508173ffffffffffffffffffffffffffffffffffffffff168173ffffffffffffffffffffffffffffffffffffffff167f8be0079c531659141344cd1fd0a4f28419497f9722a3daafe3b4186f6b6457e060405160405180910390a35050565b600073ffffffffffffffffffffffffffffffffffffffff168273ffffffffffffffffffffffffffffffffffffffff1614156200026f576040517f08c379a000000000000000000000000000000000000000000000000000000000815260040162000266906200079d565b60405180910390fd5b60008111620002b5576040517f08c379a0000000000000000000000000000000000000000000000000000000008152600401620002ac90620007e1565b60405180910390fd5b6000601060008473ffffffffffffffffffffffffffffffffffffffff1673ffffffffffffffffffffffffffffffffffffffff16815260200190815260200160002054146200033a576040517f08c379a00000000000000000000000000000000000000000000000000000000081526004016200033190620007bf565b60405180910390fd5b6012829080600181540180825580915050600190039060005260206000200160009091909190916101000a81548173ffffffffffffffffffffffffffffffffffffffff021916908373ffffffffffffffffffffffffffffffffffffffff16021790555080601060008473ffffffffffffffffffffffffffffffffffffffff1673ffffffffffffffffffffffffffffffffffffffff168152602001908152602001600020819055507f40c340f65e17194d14ddddb073d3c9f888e3cb52b5aae0c6c7706b4fbc905fac828260405162000414929190620006fe565b60405180910390a15050565b8280546200042e90620008f2565b90600052602060002090601f0160209004810192826200045257600085556200049e565b82601f106200046d57805160ff19168380011785556200049e565b828001600101855582156200049e579182015b828111156200049d57825182559160200191906001019062000480565b5b509050620004ad9190620004b1565b5090565b5b80821115620004cc576000816000905550600101620004b2565b5090565b6000620004e7620004e1846200082c565b62000803565b9050828152602081018484840111156200050057600080fd5b6200050d848285620008bc565b509392505050565b600082601f8301126200052757600080fd5b815162000539848260208601620004d0565b91505092915050565b600081519050620005538162000a94565b92915050565b600080600080600060a086880312156200057257600080fd5b600086015167ffffffffffffffff8111156200058d57600080fd5b6200059b8882890162000515565b955050602086015167ffffffffffffffff811115620005b957600080fd5b620005c78882890162000515565b945050604086015167ffffffffffffffff811115620005e557600080fd5b620005f38882890162000515565b9350506060620006068882890162000542565b9250506080620006198882890162000542565b9150509295509295909350565b62000631816200087e565b82525050565b6000620006448262000862565b6200065081856200086d565b935062000662818560208601620008bc565b6200066d81620009bc565b840191505092915050565b600062000687602c836200086d565b91506200069482620009cd565b604082019050919050565b6000620006ae602b836200086d565b9150620006bb8262000a1c565b604082019050919050565b6000620006d5601d836200086d565b9150620006e28262000a6b565b602082019050919050565b620006f881620008b2565b82525050565b600060408201905062000715600083018562000626565b620007246020830184620006ed565b9392505050565b600060a082019050818103600083015262000747818862000637565b905081810360208301526200075d818762000637565b9050818103604083015262000773818662000637565b9050620007846060830185620006ed565b620007936080830184620006ed565b9695505050505050565b60006020820190508181036000830152620007b88162000678565b9050919050565b60006020820190508181036000830152620007da816200069f565b9050919050565b60006020820190508181036000830152620007fc81620006c6565b9050919050565b60006200080f62000822565b90506200081d828262000928565b919050565b6000604051905090565b600067ffffffffffffffff8211156200084a57620008496200098d565b5b6200085582620009bc565b9050602081019050919050565b600081519050919050565b600082825260208201905092915050565b60006200088b8262000892565b9050919050565b600073ffffffffffffffffffffffffffffffffffffffff82169050919050565b6000819050919050565b60005b83811015620008dc578082015181840152602081019050620008bf565b83811115620008ec576000848401525b50505050565b600060028204905060018216806200090b57607f821691505b602082108114156200092257620009216200095e565b5b50919050565b6200093382620009bc565b810181811067ffffffffffffffff821117156200095557620009546200098d565b5b80604052505050565b7f4e487b7100000000000000000000000000000000000000000000000000000000600052602260045260246000fd5b7f4e487b7100000000000000000000000000000000000000000000000000000000600052604160045260246000fd5b6000601f19601f8301169050919050565b7f5061796d656e7453706c69747465723a206163636f756e74206973207468652060008201527f7a65726f20616464726573730000000000000000000000000000000000000000602082015250565b7f5061796d656e7453706c69747465723a206163636f756e7420616c726561647960008201527f2068617320736861726573000000000000000000000000000000000000000000602082015250565b7f5061796d656e7453706c69747465723a20736861726573206172652030000000600082015250565b62000a9f81620008b2565b811462000aab57600080fd5b50565b618a5f8062000abe6000396000f3fe6080604052600436106103e85760003560e01c806370a0823111610208578063b34c8caf11610118578063d79779b2116100ab578063e985e9c51161007a578063e985e9c514610f91578063f2fde38b14610fce578063f340fa0114610ff7578063f3fef3a314611013578063fdf89673146110435761042f565b8063d79779b214610ec9578063d96a094a14610f06578063d9caed1214610f36578063e33b7de314610f665761042f565b8063c4e41b22116100e7578063c4e41b2214610e0d578063c87b56dd14610e38578063ce7c2ac214610e75578063d684beff14610eb25761042f565b8063b34c8caf14610d53578063b88d4fde14610d90578063bbf85e8014610db9578063bcc1c53f14610de25761042f565b80638c7ea24b1161019b578063a22cb4651161016a578063a22cb46514610c70578063a260633414610c99578063a7041d7a14610cc2578063ac4b4a1014610ceb578063ae9df3d414610d165761042f565b80638c7ea24b14610bb45780638da5cb5b14610bdd57806395d89b4114610c085780639852595c14610c335761042f565b80638340f549116101d75780638340f54914610b075780638417b47f14610b235780638859e91f14610b4c5780638b83209b14610b775761042f565b806370a0823114610a5a578063715018a614610a975780637deb602514610aae578063814a76fe14610ade5761042f565b80633e48d88f116103035780634f6ccce7116102965780635f011201116102655780635f0112011461097057806363167ced146109995780636352211e146109c45780636a62784214610a015780636f8b44b014610a315761042f565b80634f6ccce7146108a2578063589a1743146108df57806359aa03aa1461091c5780635c975abb146109455761042f565b8063438ea94a116102d2578063438ea94a146107e657806347d91e031461082357806348b750441461084e5780634c0f38c2146108775761042f565b80633e48d88f1461072c578063406072a91461075757806342842e0e1461079457806342966c68146107bd5761042f565b806318eef3951161037b57806323b872dd1161034a57806323b872dd1461065d5780632a55205a146106865780632f745c59146106c457806335db70b5146107015761042f565b806318eef395146105a157806318fbcdb3146105de57806319165587146106095780631e2f73b1146106325761042f565b8063095ea7b3116103b7578063095ea7b3146105045780631249c58b1461052d578063172958941461054b57806318160ddd146105765761042f565b806301ffc9a71461043457806303ee438c1461047157806306fdde031461049c578063081812fc146104c75761042f565b3661042f577f6ef95f06320e7a25a04a175ca677b7052bdd97131872c2192525a629f51be77061041661106c565b346040516104259291906173b5565b60405180910390a1005b600080fd5b34801561044057600080fd5b5061045b60048036038101906104569190616958565b611074565b60405161046891906173de565b60405180910390f35b34801561047d57600080fd5b50610486611086565b60405161049391906174e2565b60405180910390f35b3480156104a857600080fd5b506104b1611114565b6040516104be91906174e2565b60405180910390f35b3480156104d357600080fd5b506104ee60048036038101906104e99190616a5e565b6111a6565b6040516104fb91906172c5565b60405180910390f35b34801561051057600080fd5b5061052b60048036038101906105269190616842565b61122b565b005b610535611343565b6040516105429190617a64565b60405180910390f35b34801561055757600080fd5b506105606113e7565b60405161056d9190617a64565b60405180910390f35b34801561058257600080fd5b5061058b6113f1565b6040516105989190617a64565b60405180910390f35b3480156105ad57600080fd5b506105c860048036038101906105c39190616a5e565b6113fe565b6040516105d59190617a64565b60405180910390f35b3480156105ea57600080fd5b506105f361141b565b6040516106009190617a64565b60405180910390f35b34801561061557600080fd5b50610630600480360381019061062b9190616688565b611425565b005b34801561063e57600080fd5b506106476115ea565b60405161065491906172c5565b60405180910390f35b34801561066957600080fd5b50610684600480360381019061067f91906166ed565b611610565b005b34801561069257600080fd5b506106ad60048036038101906106a89190616aec565b611670565b6040516106bb9291906173b5565b60405180910390f35b3480156106d057600080fd5b506106eb60048036038101906106e69190616842565b611730565b6040516106f89190617a64565b60405180910390f35b34801561070d57600080fd5b506107166117d5565b6040516107239190617a64565b60405180910390f35b34801561073857600080fd5b506107416117db565b60405161074e9190617a64565b60405180910390f35b34801561076357600080fd5b5061077e600480360381019061077991906169d3565b6117e5565b60405161078b9190617a64565b60405180910390f35b3480156107a057600080fd5b506107bb60048036038101906107b691906166ed565b61186c565b005b3480156107c957600080fd5b506107e460048036038101906107df9190616a5e565b61188c565b005b3480156107f257600080fd5b5061080d60048036038101906108089190616842565b61193a565b60405161081a9190617a64565b60405180910390f35b34801561082f57600080fd5b50610838611a88565b6040516108459190617a64565b60405180910390f35b34801561085a57600080fd5b50610875600480360381019061087091906169d3565b611a8e565b005b34801561088357600080fd5b5061088c611dea565b6040516108999190617a64565b60405180910390f35b3480156108ae57600080fd5b506108c960048036038101906108c49190616a5e565b611df4565b6040516108d69190617a64565b60405180910390f35b3480156108eb57600080fd5b5061090660048036038101906109019190616a5e565b611e8b565b60405161091391906172c5565b60405180910390f35b34801561092857600080fd5b50610943600480360381019061093e91906168ba565b611ec8565b005b34801561095157600080fd5b5061095a6122cd565b60405161096791906173de565b60405180910390f35b34801561097c57600080fd5b506109976004803603810190610992919061665f565b6122e0565b005b3480156109a557600080fd5b506109ae612465565b6040516109bb9190617a64565b60405180910390f35b3480156109d057600080fd5b506109eb60048036038101906109e69190616a5e565b61246b565b6040516109f891906172c5565b60405180910390f35b610a1b6004803603810190610a16919061665f565b61251d565b604051610a289190617a64565b60405180910390f35b348015610a3d57600080fd5b50610a586004803603810190610a539190616a5e565b612674565b005b348015610a6657600080fd5b50610a816004803603810190610a7c919061665f565b612727565b604051610a8e9190617a64565b60405180910390f35b348015610aa357600080fd5b50610aac6127df565b005b610ac86004803603810190610ac39190616ab0565b612867565b604051610ad591906173de565b60405180910390f35b348015610aea57600080fd5b50610b056004803603810190610b009190616aec565b6129bf565b005b610b216004803603810190610b1c91906167f3565b612a6f565b005b348015610b2f57600080fd5b50610b4a6004803603810190610b459190616a5e565b612d9f565b005b348015610b5857600080fd5b50610b61612e52565b604051610b6e9190617a64565b60405180910390f35b348015610b8357600080fd5b50610b9e6004803603810190610b999190616a5e565b612e5c565b604051610bab91906172c5565b60405180910390f35b348015610bc057600080fd5b50610bdb6004803603810190610bd69190616842565b612eca565b005b348015610be957600080fd5b50610bf261304b565b604051610bff91906172c5565b60405180910390f35b348015610c1457600080fd5b50610c1d613075565b604051610c2a91906174e2565b60405180910390f35b348015610c3f57600080fd5b50610c5a6004803603810190610c55919061665f565b613107565b604051610c679190617a64565b60405180910390f35b348015610c7c57600080fd5b50610c976004803603810190610c9291906167b7565b613150565b005b348015610ca557600080fd5b50610cc06004803603810190610cbb9190616a5e565b613166565b005b348015610cce57600080fd5b50610ce96004803603810190610ce49190616a5e565b61325e565b005b348015610cf757600080fd5b50610d0061346e565b604051610d0d91906172c5565b60405180910390f35b348015610d2257600080fd5b50610d3d6004803603810190610d389190616a0f565b613494565b604051610d4a9190617a64565b60405180910390f35b348015610d5f57600080fd5b50610d7a6004803603810190610d75919061665f565b6135e5565b604051610d879190617a64565b60405180910390f35b348015610d9c57600080fd5b50610db76004803603810190610db2919061673c565b6135fd565b005b348015610dc557600080fd5b50610de06004803603810190610ddb919061665f565b61365f565b005b348015610dee57600080fd5b50610df7613784565b604051610e0491906172c5565b60405180910390f35b348015610e1957600080fd5b50610e226137aa565b604051610e2f9190617a64565b60405180910390f35b348015610e4457600080fd5b50610e5f6004803603810190610e5a9190616a5e565b6137b9565b604051610e6c91906174e2565b60405180910390f35b348015610e8157600080fd5b50610e9c6004803603810190610e97919061665f565b613895565b604051610ea99190617a64565b60405180910390f35b348015610ebe57600080fd5b50610ec76138de565b005b348015610ed557600080fd5b50610ef06004803603810190610eeb91906169aa565b6139cd565b604051610efd9190617a64565b60405180910390f35b610f206004803603810190610f1b9190616a5e565b613a16565b604051610f2d91906173de565b60405180910390f35b610f506004803603810190610f4b9190616a0f565b613a29565b604051610f5d9190617a64565b60405180910390f35b348015610f7257600080fd5b50610f7b613cd3565b604051610f889190617a64565b60405180910390f35b348015610f9d57600080fd5b50610fb86004803603810190610fb391906166b1565b613cdd565b604051610fc591906173de565b60405180910390f35b348015610fda57600080fd5b50610ff56004803603810190610ff0919061665f565b613d71565b005b611011600480360381019061100c919061665f565b613e69565b005b61102d60048036038101906110289190616842565b613fde565b60405161103a9190617a64565b60405180910390f35b34801561104f57600080fd5b5061106a60048036038101906110659190616a5e565b614239565b005b600033905090565b600061107f82614331565b9050919050565b6021805461109390617da7565b80601f01602080910402602001604051908101604052809291908181526020018280546110bf90617da7565b801561110c5780601f106110e15761010080835404028352916020019161110c565b820191906000526020600020905b8154815290600101906020018083116110ef57829003601f168201915b505050505081565b60606000805461112390617da7565b80601f016020809104026020016040519081016040528092919081815260200182805461114f90617da7565b801561119c5780601f106111715761010080835404028352916020019161119c565b820191906000526020600020905b81548152906001019060200180831161117f57829003601f168201915b5050505050905090565b60006111b1826143ab565b6111f0576040517f08c379a00000000000000000000000000000000000000000000000000000000081526004016111e790617804565b60405180910390fd5b6004600083815260200190815260200160002060009054906101000a900473ffffffffffffffffffffffffffffffffffffffff169050919050565b60006112368261246b565b90508073ffffffffffffffffffffffffffffffffffffffff168373ffffffffffffffffffffffffffffffffffffffff1614156112a7576040517f08c379a000000000000000000000000000000000000000000000000000000000815260040161129e906178e4565b60405180910390fd5b8073ffffffffffffffffffffffffffffffffffffffff166112c661106c565b73ffffffffffffffffffffffffffffffffffffffff1614806112f557506112f4816112ef61106c565b613cdd565b5b611334576040517f08c379a000000000000000000000000000000000000000000000000000000000815260040161132b90617744565b60405180910390fd5b61133e8383614417565b505050565b6000602060009054906101000a900460ff1615611395576040517f08c379a000000000000000000000000000000000000000000000000000000000815260040161138c906177c4565b60405180910390fd5b601d543410156113da576040517f08c379a00000000000000000000000000000000000000000000000000000000081526004016113d1906175e4565b60405180910390fd5b6113e26144d0565b905090565b6000600e54905090565b6000600980549050905090565b600060186000838152602001908152602001600020549050919050565b6000601f54905090565b6000601060008373ffffffffffffffffffffffffffffffffffffffff1673ffffffffffffffffffffffffffffffffffffffff16815260200190815260200160002054116114a7576040517f08c379a000000000000000000000000000000000000000000000000000000000815260040161149e90617604565b60405180910390fd5b6000600f54600e546114b99190617c2d565b6114c1613cd3565b476114cc9190617b4c565b6114d69190617c2d565b905060006114ed83836114e886613107565b614623565b90506000811415611533576040517f08c379a000000000000000000000000000000000000000000000000000000000815260040161152a90617704565b60405180910390fd5b80601160008573ffffffffffffffffffffffffffffffffffffffff1673ffffffffffffffffffffffffffffffffffffffff16815260200190815260200160002060008282546115829190617b4c565b9250508190555080600d600082825461159b9190617b4c565b925050819055506115ac8382614690565b7fdf20fd1e76bc69d672e4814fafb2c449bba3a5369d8359adf9e05e6fde87b05683826040516115dd9291906172e0565b60405180910390a1505050565b601b60009054906101000a900473ffffffffffffffffffffffffffffffffffffffff1681565b61162161161b61106c565b82614784565b611660576040517f08c379a000000000000000000000000000000000000000000000000000000000815260040161165790617924565b60405180910390fd5b61166b838383614862565b505050565b6000806000600b6040518060400160405290816000820160009054906101000a900473ffffffffffffffffffffffffffffffffffffffff1673ffffffffffffffffffffffffffffffffffffffff1673ffffffffffffffffffffffffffffffffffffffff1681526020016000820160149054906101000a900462ffffff1662ffffff1662ffffff1681525050905080600001519250612710816020015162ffffff168561171c9190617bd3565b6117269190617ba2565b9150509250929050565b600061173b83612727565b821061177c576040517f08c379a000000000000000000000000000000000000000000000000000000000815260040161177390617524565b60405180910390fd5b600760008473ffffffffffffffffffffffffffffffffffffffff1673ffffffffffffffffffffffffffffffffffffffff168152602001908152602001600020600083815260200190815260200160002054905092915050565b601d5481565b6000600f54905090565b6000601460008473ffffffffffffffffffffffffffffffffffffffff1673ffffffffffffffffffffffffffffffffffffffff16815260200190815260200160002060008373ffffffffffffffffffffffffffffffffffffffff1673ffffffffffffffffffffffffffffffffffffffff16815260200190815260200160002054905092915050565b611887838383604051806020016040528060008152506135fd565b505050565b8061189e61189861106c565b82614784565b6118dd576040517f08c379a00000000000000000000000000000000000000000000000000000000081526004016118d490617844565b60405180910390fd5b602060009054906101000a900460ff161561192d576040517f08c379a0000000000000000000000000000000000000000000000000000000008152600401611924906177c4565b60405180910390fd5b61193682614abe565b5050565b60008073ffffffffffffffffffffffffffffffffffffffff16601960009054906101000a900473ffffffffffffffffffffffffffffffffffffffff1673ffffffffffffffffffffffffffffffffffffffff1614156119cd576040517f08c379a00000000000000000000000000000000000000000000000000000000081526004016119c490617944565b60405180910390fd5b6000601960009054906101000a900473ffffffffffffffffffffffffffffffffffffffff1673ffffffffffffffffffffffffffffffffffffffff1663438ea94a85856040518363ffffffff1660e01b8152600401611a2c9291906173b5565b60206040518083038186803b158015611a4457600080fd5b505afa158015611a58573d6000803e3d6000fd5b505050506040513d601f19601f82011682018060405250810190611a7c9190616a87565b90508091505092915050565b601f5481565b6000601060008373ffffffffffffffffffffffffffffffffffffffff1673ffffffffffffffffffffffffffffffffffffffff1681526020019081526020016000205411611b10576040517f08c379a0000000000000000000000000000000000000000000000000000000008152600401611b0790617604565b60405180910390fd5b6000601660008473ffffffffffffffffffffffffffffffffffffffff1673ffffffffffffffffffffffffffffffffffffffff16815260200190815260200160002054601560008573ffffffffffffffffffffffffffffffffffffffff1673ffffffffffffffffffffffffffffffffffffffff16815260200190815260200160002054611b9c9190617c2d565b611ba5846139cd565b8473ffffffffffffffffffffffffffffffffffffffff166370a08231306040518263ffffffff1660e01b8152600401611bde91906172c5565b60206040518083038186803b158015611bf657600080fd5b505afa158015611c0a573d6000803e3d6000fd5b505050506040513d601f19601f82011682018060405250810190611c2e9190616a87565b611c389190617b4c565b611c429190617c2d565b90506000611c5a8383611c5587876117e5565b614623565b90506000811415611ca0576040517f08c379a0000000000000000000000000000000000000000000000000000000008152600401611c9790617704565b60405180910390fd5b80601460008673ffffffffffffffffffffffffffffffffffffffff1673ffffffffffffffffffffffffffffffffffffffff16815260200190815260200160002060008573ffffffffffffffffffffffffffffffffffffffff1673ffffffffffffffffffffffffffffffffffffffff1681526020019081526020016000206000828254611d2c9190617b4c565b9250508190555080601360008673ffffffffffffffffffffffffffffffffffffffff1673ffffffffffffffffffffffffffffffffffffffff1681526020019081526020016000206000828254611d829190617b4c565b92505081905550611d94848483614aca565b8373ffffffffffffffffffffffffffffffffffffffff167f3be5b7a71e84ed12875d241991c70855ac5817d847039e17a9d895c1ceb0f18a8483604051611ddc9291906173b5565b60405180910390a250505050565b6000601c54905090565b6000611dfe6113f1565b8210611e3f576040517f08c379a0000000000000000000000000000000000000000000000000000000008152600401611e3690617984565b60405180910390fd5b60098281548110611e79577f4e487b7100000000000000000000000000000000000000000000000000000000600052603260045260246000fd5b90600052602060002001549050919050565b60006017600083815260200190815260200160002060009054906101000a900473ffffffffffffffffffffffffffffffffffffffff169050919050565b818190508484905014611f10576040517f08c379a0000000000000000000000000000000000000000000000000000000008152600401611f07906178c4565b60405180910390fd5b60008484905011611f56576040517f08c379a0000000000000000000000000000000000000000000000000000000008152600401611f4d90617a04565b60405180910390fd5b60005b848490508110156122c657828282818110611f9d577f4e487b7100000000000000000000000000000000000000000000000000000000600052603260045260246000fd5b90506020020135601060003373ffffffffffffffffffffffffffffffffffffffff1673ffffffffffffffffffffffffffffffffffffffff168152602001908152602001600020541015612025576040517f08c379a000000000000000000000000000000000000000000000000000000000815260040161201c906179e4565b60405180910390fd5b82828281811061205e577f4e487b7100000000000000000000000000000000000000000000000000000000600052603260045260246000fd5b90506020020135601060003373ffffffffffffffffffffffffffffffffffffffff1673ffffffffffffffffffffffffffffffffffffffff168152602001908152602001600020546120af9190617c2d565b601060003373ffffffffffffffffffffffffffffffffffffffff1673ffffffffffffffffffffffffffffffffffffffff16815260200190815260200160002081905550600060106000878785818110612131577f4e487b7100000000000000000000000000000000000000000000000000000000600052603260045260246000fd5b9050602002016020810190612146919061665f565b73ffffffffffffffffffffffffffffffffffffffff1673ffffffffffffffffffffffffffffffffffffffff1681526020019081526020016000205411156122225761221d8585838181106121c3577f4e487b7100000000000000000000000000000000000000000000000000000000600052603260045260246000fd5b90506020020160208101906121d8919061665f565b848484818110612211577f4e487b7100000000000000000000000000000000000000000000000000000000600052603260045260246000fd5b90506020020135614b50565b6122b9565b6122b885858381811061225e577f4e487b7100000000000000000000000000000000000000000000000000000000600052603260045260246000fd5b9050602002016020810190612273919061665f565b8484848181106122ac577f4e487b7100000000000000000000000000000000000000000000000000000000600052603260045260246000fd5b90506020020135614be2565b5b8080600101915050611f59565b5050505050565b602060009054906101000a900460ff1681565b6122e861106c565b73ffffffffffffffffffffffffffffffffffffffff1661230661304b565b73ffffffffffffffffffffffffffffffffffffffff161461235c576040517f08c379a000000000000000000000000000000000000000000000000000000000815260040161235390617864565b60405180910390fd5b80601960006101000a81548173ffffffffffffffffffffffffffffffffffffffff021916908373ffffffffffffffffffffffffffffffffffffffff1602179055508073ffffffffffffffffffffffffffffffffffffffff1663df2845b56040518163ffffffff1660e01b8152600401600060405180830381600087803b1580156123e557600080fd5b505af11580156123f9573d6000803e3d6000fd5b50505050601960009054906101000a900473ffffffffffffffffffffffffffffffffffffffff1673ffffffffffffffffffffffffffffffffffffffff167f7947799a5d3281fff4a4457606b1aaa700d7ddecbe5b6143ff45b6c9866a8cc260405160405180910390a250565b601e5481565b6000806002600084815260200190815260200160002060009054906101000a900473ffffffffffffffffffffffffffffffffffffffff169050600073ffffffffffffffffffffffffffffffffffffffff168173ffffffffffffffffffffffffffffffffffffffff161415612514576040517f08c379a000000000000000000000000000000000000000000000000000000000815260040161250b90617784565b60405180910390fd5b80915050919050565b6000602060009054906101000a900460ff161561256f576040517f08c379a0000000000000000000000000000000000000000000000000000000008152600401612566906177c4565b60405180910390fd5b601d543410156125b4576040517f08c379a00000000000000000000000000000000000000000000000000000000081526004016125ab906175e4565b60405180910390fd5b6000601e5411156126655760006125cd601e5434614dfb565b90506125f8818473ffffffffffffffffffffffffffffffffffffffff1661469090919063ffffffff16565b8273ffffffffffffffffffffffffffffffffffffffff1660405161261b90617286565b60405180910390207f522c39d7156b7dd9419c7853d069ac52655fb23c5ec017f319477ad7bef213aa61264c6113f1565b3460405161265b929190617a7f565b60405180910390a3505b61266d6144d0565b9050919050565b61267c61106c565b73ffffffffffffffffffffffffffffffffffffffff1661269a61304b565b73ffffffffffffffffffffffffffffffffffffffff16146126f0576040517f08c379a00000000000000000000000000000000000000000000000000000000081526004016126e790617864565b60405180910390fd5b80601c81905550807facc639f1ff310faf48650d02a82bd24c924e45a5050fc931245096ac57c309d960405160405180910390a250565b60008073ffffffffffffffffffffffffffffffffffffffff168273ffffffffffffffffffffffffffffffffffffffff161415612798576040517f08c379a000000000000000000000000000000000000000000000000000000000815260040161278f90617764565b60405180910390fd5b600360008373ffffffffffffffffffffffffffffffffffffffff1673ffffffffffffffffffffffffffffffffffffffff168152602001908152602001600020549050919050565b6127e761106c565b73ffffffffffffffffffffffffffffffffffffffff1661280561304b565b73ffffffffffffffffffffffffffffffffffffffff161461285b576040517f08c379a000000000000000000000000000000000000000000000000000000000815260040161285290617864565b60405180910390fd5b6128656000614e2c565b565b60008073ffffffffffffffffffffffffffffffffffffffff168273ffffffffffffffffffffffffffffffffffffffff1614156128d8576040517f08c379a00000000000000000000000000000000000000000000000000000000081526004016128cf90617904565b60405180910390fd5b60006018600085815260200190815260200160002054905060006128fe601f5483614dfb565b90506000601f54111561299957612934818573ffffffffffffffffffffffffffffffffffffffff1661469090919063ffffffff16565b8373ffffffffffffffffffffffffffffffffffffffff16604051612957906172b0565b60405180910390207f522c39d7156b7dd9419c7853d069ac52655fb23c5ec017f319477ad7bef213aa8734604051612990929190617a7f565b60405180910390a35b6129b5856129b08334614ef290919063ffffffff16565b614f08565b9250505092915050565b602060009054906101000a900460ff1615612a0f576040517f08c379a0000000000000000000000000000000000000000000000000000000008152600401612a06906177c4565b60405180910390fd5b81612a21612a1b61106c565b82614784565b612a60576040517f08c379a0000000000000000000000000000000000000000000000000000000008152600401612a5790617844565b60405180910390fd5b612a6a8383615234565b505050565b60008273ffffffffffffffffffffffffffffffffffffffff1663dd62ed3e33306040518363ffffffff1660e01b8152600401612aac929190617309565b60206040518083038186803b158015612ac457600080fd5b505afa158015612ad8573d6000803e3d6000fd5b505050506040513d601f19601f82011682018060405250810190612afc9190616a87565b90506000612b086113f1565b9050601960009054906101000a900473ffffffffffffffffffffffffffffffffffffffff1673ffffffffffffffffffffffffffffffffffffffff168573ffffffffffffffffffffffffffffffffffffffff1614612b9a576040517f08c379a0000000000000000000000000000000000000000000000000000000008152600401612b9190617944565b60405180910390fd5b82821015612bdd576040517f08c379a0000000000000000000000000000000000000000000000000000000008152600401612bd490617824565b60405180910390fd5b8373ffffffffffffffffffffffffffffffffffffffff166323b872dd3330866040518463ffffffff1660e01b8152600401612c1a93929190617332565b602060405180830381600087803b158015612c3457600080fd5b505af1158015612c48573d6000803e3d6000fd5b505050506040513d601f19601f82011682018060405250810190612c6c919061692f565b50601960009054906101000a900473ffffffffffffffffffffffffffffffffffffffff1673ffffffffffffffffffffffffffffffffffffffff166307cc3a688585846040518463ffffffff1660e01b8152600401612ccc93929190617482565b600060405180830381600087803b158015612ce657600080fd5b505af1158015612cfa573d6000803e3d6000fd5b5050505082601560008673ffffffffffffffffffffffffffffffffffffffff1673ffffffffffffffffffffffffffffffffffffffff1681526020019081526020016000206000828254612d4d9190617b4c565b92505081905550348473ffffffffffffffffffffffffffffffffffffffff167f8d5b2df7eba39b5e2a616e9c89e0c253c36b92c638f32ad4f4e2bedc0ee5ba7d60405160405180910390a35050505050565b612da761106c565b73ffffffffffffffffffffffffffffffffffffffff16612dc561304b565b73ffffffffffffffffffffffffffffffffffffffff1614612e1b576040517f08c379a0000000000000000000000000000000000000000000000000000000008152600401612e1290617864565b60405180910390fd5b80601d81905550807f02dd4e125a287edc7a6a887552dc7be35f4fdabe8afd6ae78f98b448d4e1a86660405160405180910390a250565b6000601e54905090565b600060128281548110612e98577f4e487b7100000000000000000000000000000000000000000000000000000000600052603260045260246000fd5b9060005260206000200160009054906101000a900473ffffffffffffffffffffffffffffffffffffffff169050919050565b612ed261106c565b73ffffffffffffffffffffffffffffffffffffffff16612ef061304b565b73ffffffffffffffffffffffffffffffffffffffff1614612f46576040517f08c379a0000000000000000000000000000000000000000000000000000000008152600401612f3d90617864565b60405180910390fd5b60008111612f89576040517f08c379a0000000000000000000000000000000000000000000000000000000008152600401612f8090617824565b60405180910390fd5b600073ffffffffffffffffffffffffffffffffffffffff168273ffffffffffffffffffffffffffffffffffffffff161415612ff9576040517f08c379a0000000000000000000000000000000000000000000000000000000008152600401612ff090617a44565b60405180910390fd5b6130038282615288565b803073ffffffffffffffffffffffffffffffffffffffff167f908669f35f6fb3977a956ba70597841fe541d1e8491ca3c025161e258d3bfdb660405160405180910390a35050565b6000600c60009054906101000a900473ffffffffffffffffffffffffffffffffffffffff16905090565b60606001805461308490617da7565b80601f01602080910402602001604051908101604052809291908181526020018280546130b090617da7565b80156130fd5780601f106130d2576101008083540402835291602001916130fd565b820191906000526020600020905b8154815290600101906020018083116130e057829003601f168201915b5050505050905090565b6000601160008373ffffffffffffffffffffffffffffffffffffffff1673ffffffffffffffffffffffffffffffffffffffff168152602001908152602001600020549050919050565b61316261315b61106c565b8383615372565b5050565b61316e61106c565b73ffffffffffffffffffffffffffffffffffffffff1661318c61304b565b73ffffffffffffffffffffffffffffffffffffffff16146131e2576040517f08c379a00000000000000000000000000000000000000000000000000000000081526004016131d990617864565b60405180910390fd5b612710811115613227576040517f08c379a000000000000000000000000000000000000000000000000000000000815260040161321e90617664565b60405180910390fd5b80601f81905550807f905c2604b04c9fa2b09e05ab34ccae93abf21f5edd19a139c406fe9398f752a060405160405180910390a250565b61326661106c565b73ffffffffffffffffffffffffffffffffffffffff1661328461304b565b73ffffffffffffffffffffffffffffffffffffffff16146132da576040517f08c379a00000000000000000000000000000000000000000000000000000000081526004016132d190617864565b60405180910390fd5b61271081111561331f576040517f08c379a000000000000000000000000000000000000000000000000000000000815260040161331690617664565b60405180910390fd5b600073ffffffffffffffffffffffffffffffffffffffff16601a60009054906101000a900473ffffffffffffffffffffffffffffffffffffffff1673ffffffffffffffffffffffffffffffffffffffff1614156133b1576040517f08c379a00000000000000000000000000000000000000000000000000000000081526004016133a8906175a4565b60405180910390fd5b601a60009054906101000a900473ffffffffffffffffffffffffffffffffffffffff1673ffffffffffffffffffffffffffffffffffffffff1663074ae54d826040518263ffffffff1660e01b815260040161340c9190617a64565b600060405180830381600087803b15801561342657600080fd5b505af115801561343a573d6000803e3d6000fd5b50505050807f67c41861347f4f7588ff0bd41c40943750a52c35859b99dac7d30beda950088c60405160405180910390a250565b601960009054906101000a900473ffffffffffffffffffffffffffffffffffffffff1681565b60008073ffffffffffffffffffffffffffffffffffffffff16601960009054906101000a900473ffffffffffffffffffffffffffffffffffffffff1673ffffffffffffffffffffffffffffffffffffffff161415613527576040517f08c379a000000000000000000000000000000000000000000000000000000000815260040161351e90617944565b60405180910390fd5b6000601960009054906101000a900473ffffffffffffffffffffffffffffffffffffffff1673ffffffffffffffffffffffffffffffffffffffff1663ae9df3d48686866040518463ffffffff1660e01b815260040161358893929190617414565b60206040518083038186803b1580156135a057600080fd5b505afa1580156135b4573d6000803e3d6000fd5b505050506040513d601f19601f820116820180604052508101906135d89190616a87565b9050809150509392505050565b60106020528060005260406000206000915090505481565b61360e61360861106c565b83614784565b61364d576040517f08c379a000000000000000000000000000000000000000000000000000000000815260040161364490617924565b60405180910390fd5b613659848484846154df565b50505050565b61366761106c565b73ffffffffffffffffffffffffffffffffffffffff1661368561304b565b73ffffffffffffffffffffffffffffffffffffffff16146136db576040517f08c379a00000000000000000000000000000000000000000000000000000000081526004016136d290617864565b60405180910390fd5b80601a60006101000a81548173ffffffffffffffffffffffffffffffffffffffff021916908373ffffffffffffffffffffffffffffffffffffffff160217905550601a60009054906101000a900473ffffffffffffffffffffffffffffffffffffffff1673ffffffffffffffffffffffffffffffffffffffff167f5db3fb7335b6ec1dfcfd94d09bc1904829d1b8fdba0dc0ad6ee68d71650652ae60405160405180910390a250565b601a60009054906101000a900473ffffffffffffffffffffffffffffffffffffffff1681565b60006137b46113f1565b905090565b60606137c4826143ab565b613803576040517f08c379a00000000000000000000000000000000000000000000000000000000081526004016137fa906178a4565b60405180910390fd5b6021805461381090617da7565b80601f016020809104026020016040519081016040528092919081815260200182805461383c90617da7565b80156138895780601f1061385e57610100808354040283529160200191613889565b820191906000526020600020905b81548152906001019060200180831161386c57829003601f168201915b50505050509050919050565b6000601060008373ffffffffffffffffffffffffffffffffffffffff1673ffffffffffffffffffffffffffffffffffffffff168152602001908152602001600020549050919050565b6138e661106c565b73ffffffffffffffffffffffffffffffffffffffff1661390461304b565b73ffffffffffffffffffffffffffffffffffffffff161461395a576040517f08c379a000000000000000000000000000000000000000000000000000000000815260040161395190617864565b60405180910390fd5b602060009054906101000a900460ff1615602060006101000a81548160ff0219169083151502179055507fa9bfed3d98385b3777389e321dbde773cf7d335fa604fefbae3dca93564f5586602060009054906101000a900460ff16156040516139c391906173de565b60405180910390a1565b6000601360008373ffffffffffffffffffffffffffffffffffffffff1673ffffffffffffffffffffffffffffffffffffffff168152602001908152602001600020549050919050565b6000613a228234614f08565b9050919050565b6000601960009054906101000a900473ffffffffffffffffffffffffffffffffffffffff1673ffffffffffffffffffffffffffffffffffffffff168373ffffffffffffffffffffffffffffffffffffffff1614613abb576040517f08c379a0000000000000000000000000000000000000000000000000000000008152600401613ab290617944565b60405180910390fd5b6000613ac68361246b565b90506000601960009054906101000a900473ffffffffffffffffffffffffffffffffffffffff1673ffffffffffffffffffffffffffffffffffffffff1663ae9df3d48730876040518463ffffffff1660e01b8152600401613b2993929190617414565b60206040518083038186803b158015613b4157600080fd5b505afa158015613b55573d6000803e3d6000fd5b505050506040513d601f19601f82011682018060405250810190613b799190616a87565b905080601660008873ffffffffffffffffffffffffffffffffffffffff1673ffffffffffffffffffffffffffffffffffffffff1681526020019081526020016000206000828254613bca9190617b4c565b92505081905550601960009054906101000a900473ffffffffffffffffffffffffffffffffffffffff1673ffffffffffffffffffffffffffffffffffffffff1663fdb047b1876000876040518463ffffffff1660e01b8152600401613c319392919061744b565b600060405180830381600087803b158015613c4b57600080fd5b505af1158015613c5f573d6000803e3d6000fd5b50505050613c8e82828873ffffffffffffffffffffffffffffffffffffffff16614aca9092919063ffffffff16565b80847f12ff21bbdebdfd7045c78e9aa73dc7777831b172e9097bc41bedd40f841c0afd88604051613cbf91906173f9565b60405180910390a380925050509392505050565b6000600d54905090565b6000600560008473ffffffffffffffffffffffffffffffffffffffff1673ffffffffffffffffffffffffffffffffffffffff16815260200190815260200160002060008373ffffffffffffffffffffffffffffffffffffffff1673ffffffffffffffffffffffffffffffffffffffff16815260200190815260200160002060009054906101000a900460ff16905092915050565b613d7961106c565b73ffffffffffffffffffffffffffffffffffffffff16613d9761304b565b73ffffffffffffffffffffffffffffffffffffffff1614613ded576040517f08c379a0000000000000000000000000000000000000000000000000000000008152600401613de490617864565b60405180910390fd5b600073ffffffffffffffffffffffffffffffffffffffff168173ffffffffffffffffffffffffffffffffffffffff161415613e5d576040517f08c379a0000000000000000000000000000000000000000000000000000000008152600401613e5490617584565b60405180910390fd5b613e6681614e2c565b50565b601960009054906101000a900473ffffffffffffffffffffffffffffffffffffffff1673ffffffffffffffffffffffffffffffffffffffff168173ffffffffffffffffffffffffffffffffffffffff1614613ef9576040517f08c379a0000000000000000000000000000000000000000000000000000000008152600401613ef090617944565b60405180910390fd5b6000613f036113f1565b9050601960009054906101000a900473ffffffffffffffffffffffffffffffffffffffff1673ffffffffffffffffffffffffffffffffffffffff1663a64271f134836040518363ffffffff1660e01b8152600401613f62929190617a7f565b600060405180830381600087803b158015613f7c57600080fd5b505af1158015613f90573d6000803e3d6000fd5b5050505034600e6000828254613fa69190617b4c565b92505081905550347f3903d05344bfbe173a5084aa4d3a99187eff3f7bfb3db786c814e7eddd9b3cd560405160405180910390a25050565b6000601960009054906101000a900473ffffffffffffffffffffffffffffffffffffffff1673ffffffffffffffffffffffffffffffffffffffff168373ffffffffffffffffffffffffffffffffffffffff1614614070576040517f08c379a000000000000000000000000000000000000000000000000000000000815260040161406790617944565b60405180910390fd5b600061407b8361246b565b90506000601960009054906101000a900473ffffffffffffffffffffffffffffffffffffffff1673ffffffffffffffffffffffffffffffffffffffff1663438ea94a30866040518363ffffffff1660e01b81526004016140dc9291906173b5565b60206040518083038186803b1580156140f457600080fd5b505afa158015614108573d6000803e3d6000fd5b505050506040513d601f19601f8201168201806040525081019061412c9190616a87565b9050614157818373ffffffffffffffffffffffffffffffffffffffff1661469090919063ffffffff16565b80600f60008282546141699190617b4c565b92505081905550601960009054906101000a900473ffffffffffffffffffffffffffffffffffffffff1673ffffffffffffffffffffffffffffffffffffffff16631ccc43fe6000866040518363ffffffff1660e01b81526004016141ce9291906174b9565b600060405180830381600087803b1580156141e857600080fd5b505af11580156141fc573d6000803e3d6000fd5b5050505080847fd2e9df57c00b23ba7ee3ed404df528700b0f0990b7292602d48fb3b9764e507660405160405180910390a3809250505092915050565b61424161106c565b73ffffffffffffffffffffffffffffffffffffffff1661425f61304b565b73ffffffffffffffffffffffffffffffffffffffff16146142b5576040517f08c379a00000000000000000000000000000000000000000000000000000000081526004016142ac90617864565b60405180910390fd5b6127108111156142fa576040517f08c379a00000000000000000000000000000000000000000000000000000000081526004016142f190617664565b60405180910390fd5b80601e81905550807fb27a19d53c022a09a344f42378e7d232d66b643564218cbfc93c98c93a2bc7af60405160405180910390a250565b60007f780e9d63000000000000000000000000000000000000000000000000000000007bffffffffffffffffffffffffffffffffffffffffffffffffffffffff1916827bffffffffffffffffffffffffffffffffffffffffffffffffffffffff191614806143a457506143a38261553b565b5b9050919050565b60008073ffffffffffffffffffffffffffffffffffffffff166002600084815260200190815260200160002060009054906101000a900473ffffffffffffffffffffffffffffffffffffffff1673ffffffffffffffffffffffffffffffffffffffff1614159050919050565b816004600083815260200190815260200160002060006101000a81548173ffffffffffffffffffffffffffffffffffffffff021916908373ffffffffffffffffffffffffffffffffffffffff160217905550808273ffffffffffffffffffffffffffffffffffffffff1661448a8361246b565b73ffffffffffffffffffffffffffffffffffffffff167f8c5be1e5ebec7d5bd14f71427d1e84f3dd0314c0f7b2291e5b200ac8c7c3b92560405160405180910390a45050565b60006144da6113f1565b90506144f633826040518060200160405280600081525061561d565b336017600083815260200190815260200160002060006101000a81548173ffffffffffffffffffffffffffffffffffffffff021916908373ffffffffffffffffffffffffffffffffffffffff1602179055506145dc816021805461455990617da7565b80601f016020809104026020016040519081016040528092919081815260200182805461458590617da7565b80156145d25780601f106145a7576101008083540402835291602001916145d2565b820191906000526020600020905b8154815290600101906020018083116145b557829003601f168201915b5050505050615678565b3373ffffffffffffffffffffffffffffffffffffffff16817fb9203d657e9c0ec8274c818292ab0f58b04e1970050716891770eb1bab5d655e60405160405180910390a390565b6000816064601060008773ffffffffffffffffffffffffffffffffffffffff1673ffffffffffffffffffffffffffffffffffffffff16815260200190815260200160002054856146739190617bd3565b61467d9190617ba2565b6146879190617c2d565b90509392505050565b804710156146d3576040517f08c379a00000000000000000000000000000000000000000000000000000000081526004016146ca906176a4565b60405180910390fd5b60008273ffffffffffffffffffffffffffffffffffffffff16826040516146f99061729b565b60006040518083038185875af1925050503d8060008114614736576040519150601f19603f3d011682016040523d82523d6000602084013e61473b565b606091505b505090508061477f576040517f08c379a000000000000000000000000000000000000000000000000000000000815260040161477690617684565b60405180910390fd5b505050565b600061478f826143ab565b6147ce576040517f08c379a00000000000000000000000000000000000000000000000000000000081526004016147c5906176e4565b60405180910390fd5b60006147d98361246b565b90508073ffffffffffffffffffffffffffffffffffffffff168473ffffffffffffffffffffffffffffffffffffffff16148061484857508373ffffffffffffffffffffffffffffffffffffffff16614830846111a6565b73ffffffffffffffffffffffffffffffffffffffff16145b8061485957506148588185613cdd565b5b91505092915050565b8273ffffffffffffffffffffffffffffffffffffffff166148828261246b565b73ffffffffffffffffffffffffffffffffffffffff16146148d8576040517f08c379a00000000000000000000000000000000000000000000000000000000081526004016148cf90617884565b60405180910390fd5b600073ffffffffffffffffffffffffffffffffffffffff168273ffffffffffffffffffffffffffffffffffffffff161415614948576040517f08c379a000000000000000000000000000000000000000000000000000000000815260040161493f90617624565b60405180910390fd5b6149538383836156ec565b61495e600082614417565b6001600360008573ffffffffffffffffffffffffffffffffffffffff1673ffffffffffffffffffffffffffffffffffffffff16815260200190815260200160002060008282546149ae9190617c2d565b925050819055506001600360008473ffffffffffffffffffffffffffffffffffffffff1673ffffffffffffffffffffffffffffffffffffffff1681526020019081526020016000206000828254614a059190617b4c565b92505081905550816002600083815260200190815260200160002060006101000a81548173ffffffffffffffffffffffffffffffffffffffff021916908373ffffffffffffffffffffffffffffffffffffffff160217905550808273ffffffffffffffffffffffffffffffffffffffff168473ffffffffffffffffffffffffffffffffffffffff167fddf252ad1be2c89b69c2b068fc378daa952ba7f163c4a11628f55a4df523b3ef60405160405180910390a4505050565b614ac7816156fc565b50565b614b4b8363a9059cbb60e01b8484604051602401614ae99291906173b5565b604051602081830303815290604052907bffffffffffffffffffffffffffffffffffffffffffffffffffffffff19166020820180517bffffffffffffffffffffffffffffffffffffffffffffffffffffffff838183161783525050505061574f565b505050565b80601060008473ffffffffffffffffffffffffffffffffffffffff1673ffffffffffffffffffffffffffffffffffffffff16815260200190815260200160002054614b9b9190617b4c565b601060008473ffffffffffffffffffffffffffffffffffffffff1673ffffffffffffffffffffffffffffffffffffffff168152602001908152602001600020819055505050565b600073ffffffffffffffffffffffffffffffffffffffff168273ffffffffffffffffffffffffffffffffffffffff161415614c52576040517f08c379a0000000000000000000000000000000000000000000000000000000008152600401614c4990617564565b60405180910390fd5b60008111614c95576040517f08c379a0000000000000000000000000000000000000000000000000000000008152600401614c8c90617a24565b60405180910390fd5b6000601060008473ffffffffffffffffffffffffffffffffffffffff1673ffffffffffffffffffffffffffffffffffffffff1681526020019081526020016000205414614d17576040517f08c379a0000000000000000000000000000000000000000000000000000000008152600401614d0e906179a4565b60405180910390fd5b6012829080600181540180825580915050600190039060005260206000200160009091909190916101000a81548173ffffffffffffffffffffffffffffffffffffffff021916908373ffffffffffffffffffffffffffffffffffffffff16021790555080601060008473ffffffffffffffffffffffffffffffffffffffff1673ffffffffffffffffffffffffffffffffffffffff168152602001908152602001600020819055507f40c340f65e17194d14ddddb073d3c9f888e3cb52b5aae0c6c7706b4fbc905fac8282604051614def9291906173b5565b60405180910390a15050565b6000614e24612710614e16858561581690919063ffffffff16565b61582c90919063ffffffff16565b905092915050565b6000600c60009054906101000a900473ffffffffffffffffffffffffffffffffffffffff16905081600c60006101000a81548173ffffffffffffffffffffffffffffffffffffffff021916908373ffffffffffffffffffffffffffffffffffffffff1602179055508173ffffffffffffffffffffffffffffffffffffffff168173ffffffffffffffffffffffffffffffffffffffff167f8be0079c531659141344cd1fd0a4f28419497f9722a3daafe3b4186f6b6457e060405160405180910390a35050565b60008183614f009190617c2d565b905092915050565b6000806018600085815260200190815260200160002054905060008111614f64576040517f08c379a0000000000000000000000000000000000000000000000000000000008152600401614f5b906175a4565b60405180910390fd5b80831015614fa7576040517f08c379a0000000000000000000000000000000000000000000000000000000008152600401614f9e90617724565b60405180910390fd5b6000614fb28561246b565b90506000614fbe61106c565b90506000803073ffffffffffffffffffffffffffffffffffffffff16632a55205a6000876040518363ffffffff1660e01b8152600401614fff9291906174b9565b604080518083038186803b15801561501657600080fd5b505afa15801561502a573d6000803e3d6000fd5b505050506040513d601f19601f8201168201806040525081019061504e919061687e565b91509150600073ffffffffffffffffffffffffffffffffffffffff16601a60009054906101000a900473ffffffffffffffffffffffffffffffffffffffff1673ffffffffffffffffffffffffffffffffffffffff16146150f8576150f381601a60009054906101000a900473ffffffffffffffffffffffffffffffffffffffff1673ffffffffffffffffffffffffffffffffffffffff1661469090919063ffffffff16565b615170565b600081111561516f5761512a818373ffffffffffffffffffffffffffffffffffffffff1661469090919063ffffffff16565b808273ffffffffffffffffffffffffffffffffffffffff167fbc86de696edc3350c664d50abf25f24e7e1251f1469ad925b25fe36927270d4360405160405180910390a35b5b6151ab6151868287614ef290919063ffffffff16565b8573ffffffffffffffffffffffffffffffffffffffff1661469090919063ffffffff16565b8273ffffffffffffffffffffffffffffffffffffffff168473ffffffffffffffffffffffffffffffffffffffff16897f23f50d55776d8003622a982ade45a6c7f083116c8dbbcd980f59942f440badb1886040516152099190617a64565b60405180910390a461521a85615842565b61522584848a614862565b60019550505050505092915050565b806018600084815260200190815260200160002081905550817fe23ea816dce6d7f5c0b85cbd597e7c3b97b2453791152c0b94e5e5c5f314d2f08260405161527c9190617a64565b60405180910390a25050565b6127108111156152cd576040517f08c379a00000000000000000000000000000000000000000000000000000000081526004016152c490617504565b60405180910390fd5b60405180604001604052808373ffffffffffffffffffffffffffffffffffffffff1681526020018262ffffff16815250600b60008201518160000160006101000a81548173ffffffffffffffffffffffffffffffffffffffff021916908373ffffffffffffffffffffffffffffffffffffffff16021790555060208201518160000160146101000a81548162ffffff021916908362ffffff1602179055509050505050565b8173ffffffffffffffffffffffffffffffffffffffff168373ffffffffffffffffffffffffffffffffffffffff1614156153e1576040517f08c379a00000000000000000000000000000000000000000000000000000000081526004016153d890617644565b60405180910390fd5b80600560008573ffffffffffffffffffffffffffffffffffffffff1673ffffffffffffffffffffffffffffffffffffffff16815260200190815260200160002060008473ffffffffffffffffffffffffffffffffffffffff1673ffffffffffffffffffffffffffffffffffffffff16815260200190815260200160002060006101000a81548160ff0219169083151502179055508173ffffffffffffffffffffffffffffffffffffffff168373ffffffffffffffffffffffffffffffffffffffff167f17307eab39ab6107e8899845ad3d59bd9653f200f220920489ca2b5937696c31836040516154d291906173de565b60405180910390a3505050565b6154ea848484614862565b6154f684848484615897565b615535576040517f08c379a000000000000000000000000000000000000000000000000000000000815260040161552c90617544565b60405180910390fd5b50505050565b60007f80ac58cd000000000000000000000000000000000000000000000000000000007bffffffffffffffffffffffffffffffffffffffffffffffffffffffff1916827bffffffffffffffffffffffffffffffffffffffffffffffffffffffff1916148061560657507f5b5e139f000000000000000000000000000000000000000000000000000000007bffffffffffffffffffffffffffffffffffffffffffffffffffffffff1916827bffffffffffffffffffffffffffffffffffffffffffffffffffffffff1916145b80615616575061561582615a2e565b5b9050919050565b6156278383615a98565b6156346000848484615897565b615673576040517f08c379a000000000000000000000000000000000000000000000000000000000815260040161566a90617544565b60405180910390fd5b505050565b615681826143ab565b6156c0576040517f08c379a00000000000000000000000000000000000000000000000000000000081526004016156b7906177a4565b60405180910390fd5b806006600084815260200190815260200160002090805190602001906156e79291906163ae565b505050565b6156f7838383615c66565b505050565b61570581615d7a565b600060066000838152602001908152602001600020805461572590617da7565b90501461574c5760066000828152602001908152602001600020600061574b9190616434565b5b50565b60006157b1826040518060400160405280602081526020017f5361666545524332303a206c6f772d6c6576656c2063616c6c206661696c65648152508573ffffffffffffffffffffffffffffffffffffffff16615e8b9092919063ffffffff16565b905060008151111561581157808060200190518101906157d1919061692f565b615810576040517f08c379a0000000000000000000000000000000000000000000000000000000008152600401615807906179c4565b60405180910390fd5b5b505050565b600081836158249190617bd3565b905092915050565b6000818361583a9190617ba2565b905092915050565b60006158578234614ef290919063ffffffff16565b90506000811115615893576158928161586e61106c565b73ffffffffffffffffffffffffffffffffffffffff1661469090919063ffffffff16565b5b5050565b60006158b88473ffffffffffffffffffffffffffffffffffffffff16615ea3565b15615a21578373ffffffffffffffffffffffffffffffffffffffff1663150b7a026158e161106c565b8786866040518563ffffffff1660e01b81526004016159039493929190617369565b602060405180830381600087803b15801561591d57600080fd5b505af192505050801561594e57506040513d601f19601f8201168201806040525081019061594b9190616981565b60015b6159d1573d806000811461597e576040519150601f19603f3d011682016040523d82523d6000602084013e615983565b606091505b506000815114156159c9576040517f08c379a00000000000000000000000000000000000000000000000000000000081526004016159c090617544565b60405180910390fd5b805181602001fd5b63150b7a0260e01b7bffffffffffffffffffffffffffffffffffffffffffffffffffffffff1916817bffffffffffffffffffffffffffffffffffffffffffffffffffffffff191614915050615a26565b600190505b949350505050565b60007f01ffc9a7000000000000000000000000000000000000000000000000000000007bffffffffffffffffffffffffffffffffffffffffffffffffffffffff1916827bffffffffffffffffffffffffffffffffffffffffffffffffffffffff1916149050919050565b600073ffffffffffffffffffffffffffffffffffffffff168273ffffffffffffffffffffffffffffffffffffffff161415615b08576040517f08c379a0000000000000000000000000000000000000000000000000000000008152600401615aff906177e4565b60405180910390fd5b615b11816143ab565b15615b51576040517f08c379a0000000000000000000000000000000000000000000000000000000008152600401615b48906175c4565b60405180910390fd5b615b5d600083836156ec565b6001600360008473ffffffffffffffffffffffffffffffffffffffff1673ffffffffffffffffffffffffffffffffffffffff1681526020019081526020016000206000828254615bad9190617b4c565b92505081905550816002600083815260200190815260200160002060006101000a81548173ffffffffffffffffffffffffffffffffffffffff021916908373ffffffffffffffffffffffffffffffffffffffff160217905550808273ffffffffffffffffffffffffffffffffffffffff16600073ffffffffffffffffffffffffffffffffffffffff167fddf252ad1be2c89b69c2b068fc378daa952ba7f163c4a11628f55a4df523b3ef60405160405180910390a45050565b615c71838383615eb6565b600073ffffffffffffffffffffffffffffffffffffffff168373ffffffffffffffffffffffffffffffffffffffff161415615cb457615caf81615ebb565b615cf3565b8173ffffffffffffffffffffffffffffffffffffffff168373ffffffffffffffffffffffffffffffffffffffff1614615cf257615cf18382615f04565b5b5b600073ffffffffffffffffffffffffffffffffffffffff168273ffffffffffffffffffffffffffffffffffffffff161415615d3657615d3181616071565b615d75565b8273ffffffffffffffffffffffffffffffffffffffff168273ffffffffffffffffffffffffffffffffffffffff1614615d7457615d7382826161b4565b5b5b505050565b6000615d858261246b565b9050615d93816000846156ec565b615d9e600083614417565b6001600360008373ffffffffffffffffffffffffffffffffffffffff1673ffffffffffffffffffffffffffffffffffffffff1681526020019081526020016000206000828254615dee9190617c2d565b925050819055506002600083815260200190815260200160002060006101000a81549073ffffffffffffffffffffffffffffffffffffffff021916905581600073ffffffffffffffffffffffffffffffffffffffff168273ffffffffffffffffffffffffffffffffffffffff167fddf252ad1be2c89b69c2b068fc378daa952ba7f163c4a11628f55a4df523b3ef60405160405180910390a45050565b6060615e9a8484600085616233565b90509392505050565b600080823b905060008111915050919050565b505050565b600980549050600a600083815260200190815260200160002081905550600981908060018154018082558091505060019003906000526020600020016000909190919091505550565b60006001615f1184612727565b615f1b9190617c2d565b9050600060086000848152602001908152602001600020549050818114616000576000600760008673ffffffffffffffffffffffffffffffffffffffff1673ffffffffffffffffffffffffffffffffffffffff168152602001908152602001600020600084815260200190815260200160002054905080600760008773ffffffffffffffffffffffffffffffffffffffff1673ffffffffffffffffffffffffffffffffffffffff168152602001908152602001600020600084815260200190815260200160002081905550816008600083815260200190815260200160002081905550505b6008600084815260200190815260200160002060009055600760008573ffffffffffffffffffffffffffffffffffffffff1673ffffffffffffffffffffffffffffffffffffffff16815260200190815260200160002060008381526020019081526020016000206000905550505050565b600060016009805490506160859190617c2d565b90506000600a60008481526020019081526020016000205490506000600983815481106160db577f4e487b7100000000000000000000000000000000000000000000000000000000600052603260045260246000fd5b906000526020600020015490508060098381548110616123577f4e487b7100000000000000000000000000000000000000000000000000000000600052603260045260246000fd5b906000526020600020018190555081600a600083815260200190815260200160002081905550600a6000858152602001908152602001600020600090556009805480616198577f4e487b7100000000000000000000000000000000000000000000000000000000600052603160045260246000fd5b6001900381819060005260206000200160009055905550505050565b60006161bf83612727565b905081600760008573ffffffffffffffffffffffffffffffffffffffff1673ffffffffffffffffffffffffffffffffffffffff168152602001908152602001600020600083815260200190815260200160002081905550806008600084815260200190815260200160002081905550505050565b606082471015616278576040517f08c379a000000000000000000000000000000000000000000000000000000000815260040161626f906176c4565b60405180910390fd5b61628185615ea3565b6162c0576040517f08c379a00000000000000000000000000000000000000000000000000000000081526004016162b790617964565b60405180910390fd5b6000808673ffffffffffffffffffffffffffffffffffffffff1685876040516162e9919061726f565b60006040518083038185875af1925050503d8060008114616326576040519150601f19603f3d011682016040523d82523d6000602084013e61632b565b606091505b509150915061633b828286616347565b92505050949350505050565b60608315616357578290506163a7565b60008351111561636a5782518084602001fd5b816040517f08c379a000000000000000000000000000000000000000000000000000000000815260040161639e91906174e2565b60405180910390fd5b9392505050565b8280546163ba90617da7565b90600052602060002090601f0160209004810192826163dc5760008555616423565b82601f106163f557805160ff1916838001178555616423565b82800160010185558215616423579182015b82811115616422578251825591602001919060010190616407565b5b5090506164309190616474565b5090565b50805461644090617da7565b6000825580601f106164525750616471565b601f0160209004906000526020600020908101906164709190616474565b5b50565b5b8082111561648d576000816000905550600101616475565b5090565b60006164a461649f84617acd565b617aa8565b9050828152602081018484840111156164bc57600080fd5b6164c7848285617d65565b509392505050565b6000813590506164de8161899f565b92915050565b6000815190506164f38161899f565b92915050565b600081359050616508816189b6565b92915050565b60008083601f84011261652057600080fd5b8235905067ffffffffffffffff81111561653957600080fd5b60208301915083602082028301111561655157600080fd5b9250929050565b60008083601f84011261656a57600080fd5b8235905067ffffffffffffffff81111561658357600080fd5b60208301915083602082028301111561659b57600080fd5b9250929050565b6000813590506165b1816189cd565b92915050565b6000815190506165c6816189cd565b92915050565b6000813590506165db816189e4565b92915050565b6000815190506165f0816189e4565b92915050565b600082601f83011261660757600080fd5b8135616617848260208601616491565b91505092915050565b60008135905061662f816189fb565b92915050565b60008135905061664481618a12565b92915050565b60008151905061665981618a12565b92915050565b60006020828403121561667157600080fd5b600061667f848285016164cf565b91505092915050565b60006020828403121561669a57600080fd5b60006166a8848285016164f9565b91505092915050565b600080604083850312156166c457600080fd5b60006166d2858286016164cf565b92505060206166e3858286016164cf565b9150509250929050565b60008060006060848603121561670257600080fd5b6000616710868287016164cf565b9350506020616721868287016164cf565b925050604061673286828701616635565b9150509250925092565b6000806000806080858703121561675257600080fd5b6000616760878288016164cf565b9450506020616771878288016164cf565b935050604061678287828801616635565b925050606085013567ffffffffffffffff81111561679f57600080fd5b6167ab878288016165f6565b91505092959194509250565b600080604083850312156167ca57600080fd5b60006167d8858286016164cf565b92505060206167e9858286016165a2565b9150509250929050565b60008060006060848603121561680857600080fd5b6000616816868287016164cf565b935050602061682786828701616620565b925050604061683886828701616635565b9150509250925092565b6000806040838503121561685557600080fd5b6000616863858286016164cf565b925050602061687485828601616635565b9150509250929050565b6000806040838503121561689157600080fd5b600061689f858286016164e4565b92505060206168b08582860161664a565b9150509250929050565b600080600080604085870312156168d057600080fd5b600085013567ffffffffffffffff8111156168ea57600080fd5b6168f68782880161650e565b9450945050602085013567ffffffffffffffff81111561691557600080fd5b61692187828801616558565b925092505092959194509250565b60006020828403121561694157600080fd5b600061694f848285016165b7565b91505092915050565b60006020828403121561696a57600080fd5b6000616978848285016165cc565b91505092915050565b60006020828403121561699357600080fd5b60006169a1848285016165e1565b91505092915050565b6000602082840312156169bc57600080fd5b60006169ca84828501616620565b91505092915050565b600080604083850312156169e657600080fd5b60006169f485828601616620565b9250506020616a05858286016164cf565b9150509250929050565b600080600060608486031215616a2457600080fd5b6000616a3286828701616620565b9350506020616a43868287016164cf565b9250506040616a5486828701616635565b9150509250925092565b600060208284031215616a7057600080fd5b6000616a7e84828501616635565b91505092915050565b600060208284031215616a9957600080fd5b6000616aa78482850161664a565b91505092915050565b60008060408385031215616ac357600080fd5b6000616ad185828601616635565b9250506020616ae2858286016164cf565b9150509250929050565b60008060408385031215616aff57600080fd5b6000616b0d85828601616635565b9250506020616b1e85828601616635565b9150509250929050565b616b3181617cf9565b82525050565b616b4081617c61565b82525050565b616b4f81617c85565b82525050565b6000616b6082617afe565b616b6a8185617b14565b9350616b7a818560208601617d74565b616b8381617ec6565b840191505092915050565b6000616b9982617afe565b616ba38185617b25565b9350616bb3818560208601617d74565b80840191505092915050565b616bc881617d0b565b82525050565b616bd781617d2f565b82525050565b6000616be882617b09565b616bf28185617b30565b9350616c02818560208601617d74565b616c0b81617ec6565b840191505092915050565b6000616c23601a83617b30565b9150616c2e82617ed7565b602082019050919050565b6000616c46602b83617b30565b9150616c5182617f00565b604082019050919050565b6000616c69603283617b30565b9150616c7482617f4f565b604082019050919050565b6000616c8c602c83617b30565b9150616c9782617f9e565b604082019050919050565b6000616caf602683617b30565b9150616cba82617fed565b604082019050919050565b6000616cd2600883617b30565b9150616cdd8261803c565b602082019050919050565b6000616cf5601c83617b30565b9150616d0082618065565b602082019050919050565b6000616d18600883617b30565b9150616d238261808e565b602082019050919050565b6000616d3b602683617b30565b9150616d46826180b7565b604082019050919050565b6000616d5e602483617b30565b9150616d6982618106565b604082019050919050565b6000616d81601983617b30565b9150616d8c82618155565b602082019050919050565b6000616da4600883617b30565b9150616daf8261817e565b602082019050919050565b6000616dc7603a83617b30565b9150616dd2826181a7565b604082019050919050565b6000616dea601d83617b30565b9150616df5826181f6565b602082019050919050565b6000616e0d602683617b30565b9150616e188261821f565b604082019050919050565b6000616e30602c83617b30565b9150616e3b8261826e565b604082019050919050565b6000616e53602b83617b30565b9150616e5e826182bd565b604082019050919050565b6000616e76600883617b30565b9150616e818261830c565b602082019050919050565b6000616e99603883617b30565b9150616ea482618335565b604082019050919050565b6000616ebc602a83617b30565b9150616ec782618384565b604082019050919050565b6000616edf602983617b30565b9150616eea826183d3565b604082019050919050565b6000616f02602e83617b30565b9150616f0d82618422565b604082019050919050565b6000616f25600883617b30565b9150616f3082618471565b602082019050919050565b6000616f48602083617b30565b9150616f538261849a565b602082019050919050565b6000616f6b602c83617b30565b9150616f76826184c3565b604082019050919050565b6000616f8e600883617b30565b9150616f9982618512565b602082019050919050565b6000616fb1600883617b30565b9150616fbc8261853b565b602082019050919050565b6000616fd4602083617b30565b9150616fdf82618564565b602082019050919050565b6000616ff7600783617b41565b91506170028261858d565b600782019050919050565b600061701a602983617b30565b9150617025826185b6565b604082019050919050565b600061703d602f83617b30565b915061704882618605565b604082019050919050565b6000617060603283617b30565b915061706b82618654565b604082019050919050565b6000617083602183617b30565b915061708e826186a3565b604082019050919050565b60006170a6600083617b25565b91506170b1826186f2565b600082019050919050565b60006170c9600883617b30565b91506170d4826186f5565b602082019050919050565b60006170ec603183617b30565b91506170f78261871e565b604082019050919050565b600061710f600883617b30565b915061711a8261876d565b602082019050919050565b6000617132601d83617b30565b915061713d82618796565b602082019050919050565b6000617155602c83617b30565b9150617160826187bf565b604082019050919050565b6000617178602b83617b30565b91506171838261880e565b604082019050919050565b600061719b602a83617b30565b91506171a68261885d565b604082019050919050565b60006171be604083617b30565b91506171c9826188ac565b604082019050919050565b60006171e1601a83617b30565b91506171ec826188fb565b602082019050919050565b6000617204601d83617b30565b915061720f82618924565b602082019050919050565b6000617227600983617b41565b91506172328261894d565b600982019050919050565b600061724a600883617b30565b915061725582618976565b602082019050919050565b61726981617cef565b82525050565b600061727b8284616b8e565b915081905092915050565b600061729182616fea565b9150819050919050565b60006172a682617099565b9150819050919050565b60006172bb8261721a565b9150819050919050565b60006020820190506172da6000830184616b37565b92915050565b60006040820190506172f56000830185616b28565b6173026020830184617260565b9392505050565b600060408201905061731e6000830185616b37565b61732b6020830184616b37565b9392505050565b60006060820190506173476000830186616b37565b6173546020830185616b37565b6173616040830184617260565b949350505050565b600060808201905061737e6000830187616b37565b61738b6020830186616b37565b6173986040830185617260565b81810360608301526173aa8184616b55565b905095945050505050565b60006040820190506173ca6000830185616b37565b6173d76020830184617260565b9392505050565b60006020820190506173f36000830184616b46565b92915050565b600060208201905061740e6000830184616bbf565b92915050565b60006060820190506174296000830186616bbf565b6174366020830185616b37565b6174436040830184617260565b949350505050565b60006060820190506174606000830186616bbf565b61746d6020830185616bce565b61747a6040830184617260565b949350505050565b60006060820190506174976000830186616bbf565b6174a46020830185617260565b6174b16040830184617260565b949350505050565b60006040820190506174ce6000830185616bce565b6174db6020830184617260565b9392505050565b600060208201905081810360008301526174fc8184616bdd565b905092915050565b6000602082019050818103600083015261751d81616c16565b9050919050565b6000602082019050818103600083015261753d81616c39565b9050919050565b6000602082019050818103600083015261755d81616c5c565b9050919050565b6000602082019050818103600083015261757d81616c7f565b9050919050565b6000602082019050818103600083015261759d81616ca2565b9050919050565b600060208201905081810360008301526175bd81616cc5565b9050919050565b600060208201905081810360008301526175dd81616ce8565b9050919050565b600060208201905081810360008301526175fd81616d0b565b9050919050565b6000602082019050818103600083015261761d81616d2e565b9050919050565b6000602082019050818103600083015261763d81616d51565b9050919050565b6000602082019050818103600083015261765d81616d74565b9050919050565b6000602082019050818103600083015261767d81616d97565b9050919050565b6000602082019050818103600083015261769d81616dba565b9050919050565b600060208201905081810360008301526176bd81616ddd565b9050919050565b600060208201905081810360008301526176dd81616e00565b9050919050565b600060208201905081810360008301526176fd81616e23565b9050919050565b6000602082019050818103600083015261771d81616e46565b9050919050565b6000602082019050818103600083015261773d81616e69565b9050919050565b6000602082019050818103600083015261775d81616e8c565b9050919050565b6000602082019050818103600083015261777d81616eaf565b9050919050565b6000602082019050818103600083015261779d81616ed2565b9050919050565b600060208201905081810360008301526177bd81616ef5565b9050919050565b600060208201905081810360008301526177dd81616f18565b9050919050565b600060208201905081810360008301526177fd81616f3b565b9050919050565b6000602082019050818103600083015261781d81616f5e565b9050919050565b6000602082019050818103600083015261783d81616f81565b9050919050565b6000602082019050818103600083015261785d81616fa4565b9050919050565b6000602082019050818103600083015261787d81616fc7565b9050919050565b6000602082019050818103600083015261789d8161700d565b9050919050565b600060208201905081810360008301526178bd81617030565b9050919050565b600060208201905081810360008301526178dd81617053565b9050919050565b600060208201905081810360008301526178fd81617076565b9050919050565b6000602082019050818103600083015261791d816170bc565b9050919050565b6000602082019050818103600083015261793d816170df565b9050919050565b6000602082019050818103600083015261795d81617102565b9050919050565b6000602082019050818103600083015261797d81617125565b9050919050565b6000602082019050818103600083015261799d81617148565b9050919050565b600060208201905081810360008301526179bd8161716b565b9050919050565b600060208201905081810360008301526179dd8161718e565b9050919050565b600060208201905081810360008301526179fd816171b1565b9050919050565b60006020820190508181036000830152617a1d816171d4565b9050919050565b60006020820190508181036000830152617a3d816171f7565b9050919050565b60006020820190508181036000830152617a5d8161723d565b9050919050565b6000602082019050617a796000830184617260565b92915050565b6000604082019050617a946000830185617260565b617aa16020830184617260565b9392505050565b6000617ab2617ac3565b9050617abe8282617dd9565b919050565b6000604051905090565b600067ffffffffffffffff821115617ae857617ae7617e97565b5b617af182617ec6565b9050602081019050919050565b600081519050919050565b600081519050919050565b600082825260208201905092915050565b600081905092915050565b600082825260208201905092915050565b600081905092915050565b6000617b5782617cef565b9150617b6283617cef565b9250827fffffffffffffffffffffffffffffffffffffffffffffffffffffffffffffffff03821115617b9757617b96617e0a565b5b828201905092915050565b6000617bad82617cef565b9150617bb883617cef565b925082617bc857617bc7617e39565b5b828204905092915050565b6000617bde82617cef565b9150617be983617cef565b9250817fffffffffffffffffffffffffffffffffffffffffffffffffffffffffffffffff0483118215151615617c2257617c21617e0a565b5b828202905092915050565b6000617c3882617cef565b9150617c4383617cef565b925082821015617c5657617c55617e0a565b5b828203905092915050565b6000617c6c82617ccf565b9050919050565b6000617c7e82617ccf565b9050919050565b60008115159050919050565b60007fffffffff0000000000000000000000000000000000000000000000000000000082169050919050565b6000617cc882617c61565b9050919050565b600073ffffffffffffffffffffffffffffffffffffffff82169050919050565b6000819050919050565b6000617d0482617d41565b9050919050565b6000617d1682617d1d565b9050919050565b6000617d2882617ccf565b9050919050565b6000617d3a82617cef565b9050919050565b6000617d4c82617d53565b9050919050565b6000617d5e82617ccf565b9050919050565b82818337600083830152505050565b60005b83811015617d92578082015181840152602081019050617d77565b83811115617da1576000848401525b50505050565b60006002820490506001821680617dbf57607f821691505b60208210811415617dd357617dd2617e68565b5b50919050565b617de282617ec6565b810181811067ffffffffffffffff82111715617e0157617e00617e97565b5b80604052505050565b7f4e487b7100000000000000000000000000000000000000000000000000000000600052601160045260246000fd5b7f4e487b7100000000000000000000000000000000000000000000000000000000600052601260045260246000fd5b7f4e487b7100000000000000000000000000000000000000000000000000000000600052602260045260246000fd5b7f4e487b7100000000000000000000000000000000000000000000000000000000600052604160045260246000fd5b6000601f19601f8301169050919050565b7f45524332393831526f79616c746965733a20546f6f2068696768000000000000600082015250565b7f455243373231456e756d657261626c653a206f776e657220696e646578206f7560008201527f74206f6620626f756e6473000000000000000000000000000000000000000000602082015250565b7f4552433732313a207472616e7366657220746f206e6f6e20455243373231526560008201527f63656976657220696d706c656d656e7465720000000000000000000000000000602082015250565b7f5061796d656e7453706c69747465723a206163636f756e74206973207468652060008201527f7a65726f20616464726573730000000000000000000000000000000000000000602082015250565b7f4f776e61626c653a206e6577206f776e657220697320746865207a65726f206160008201527f6464726573730000000000000000000000000000000000000000000000000000602082015250565b7f4f463a452d303037000000000000000000000000000000000000000000000000600082015250565b7f4552433732313a20746f6b656e20616c7265616479206d696e74656400000000600082015250565b7f4f463a452d303031000000000000000000000000000000000000000000000000600082015250565b7f5061796d656e7453706c69747465723a206163636f756e7420686173206e6f2060008201527f7368617265730000000000000000000000000000000000000000000000000000602082015250565b7f4552433732313a207472616e7366657220746f20746865207a65726f2061646460008201527f7265737300000000000000000000000000000000000000000000000000000000602082015250565b7f4552433732313a20617070726f766520746f2063616c6c657200000000000000600082015250565b7f4f463a452d303036000000000000000000000000000000000000000000000000600082015250565b7f416464726573733a20756e61626c6520746f2073656e642076616c75652c207260008201527f6563697069656e74206d61792068617665207265766572746564000000000000602082015250565b7f416464726573733a20696e73756666696369656e742062616c616e6365000000600082015250565b7f416464726573733a20696e73756666696369656e742062616c616e636520666f60008201527f722063616c6c0000000000000000000000000000000000000000000000000000602082015250565b7f4552433732313a206f70657261746f7220717565727920666f72206e6f6e657860008201527f697374656e7420746f6b656e0000000000000000000000000000000000000000602082015250565b7f5061796d656e7453706c69747465723a206163636f756e74206973206e6f742060008201527f647565207061796d656e74000000000000000000000000000000000000000000602082015250565b7f4f463a452d303038000000000000000000000000000000000000000000000000600082015250565b7f4552433732313a20617070726f76652063616c6c6572206973206e6f74206f7760008201527f6e6572206e6f7220617070726f76656420666f7220616c6c0000000000000000602082015250565b7f4552433732313a2062616c616e636520717565727920666f7220746865207a6560008201527f726f206164647265737300000000000000000000000000000000000000000000602082015250565b7f4552433732313a206f776e657220717565727920666f72206e6f6e657869737460008201527f656e7420746f6b656e0000000000000000000000000000000000000000000000602082015250565b7f45524337323155524953746f726167653a2055524920736574206f66206e6f6e60008201527f6578697374656e7420746f6b656e000000000000000000000000000000000000602082015250565b7f4f463a452d303039000000000000000000000000000000000000000000000000600082015250565b7f4552433732313a206d696e7420746f20746865207a65726f2061646472657373600082015250565b7f4552433732313a20617070726f76656420717565727920666f72206e6f6e657860008201527f697374656e7420746f6b656e0000000000000000000000000000000000000000602082015250565b7f4f463a452d303034000000000000000000000000000000000000000000000000600082015250565b7f4f463a452d303130000000000000000000000000000000000000000000000000600082015250565b7f4f776e61626c653a2063616c6c6572206973206e6f7420746865206f776e6572600082015250565b7f7072696d61727900000000000000000000000000000000000000000000000000600082015250565b7f4552433732313a207472616e73666572206f6620746f6b656e2074686174206960008201527f73206e6f74206f776e0000000000000000000000000000000000000000000000602082015250565b7f4552433732314d657461646174613a2055524920717565727920666f72206e6f60008201527f6e6578697374656e7420746f6b656e0000000000000000000000000000000000602082015250565b7f5061796d656e7453706c69747465723a2070617965657320616e64207368617260008201527f6573206c656e677468206d69736d617463680000000000000000000000000000602082015250565b7f4552433732313a20617070726f76616c20746f2063757272656e74206f776e6560008201527f7200000000000000000000000000000000000000000000000000000000000000602082015250565b50565b7f4f463a452d303032000000000000000000000000000000000000000000000000600082015250565b7f4552433732313a207472616e736665722063616c6c6572206973206e6f74206f60008201527f776e6572206e6f7220617070726f766564000000000000000000000000000000602082015250565b7f4f463a452d303033000000000000000000000000000000000000000000000000600082015250565b7f416464726573733a2063616c6c20746f206e6f6e2d636f6e7472616374000000600082015250565b7f455243373231456e756d657261626c653a20676c6f62616c20696e646578206f60008201527f7574206f6620626f756e64730000000000000000000000000000000000000000602082015250565b7f5061796d656e7453706c69747465723a206163636f756e7420616c726561647960008201527f2068617320736861726573000000000000000000000000000000000000000000602082015250565b7f5361666545524332303a204552433230206f7065726174696f6e20646964206e60008201527f6f74207375636365656400000000000000000000000000000000000000000000602082015250565b7f5061796d656e7453706c69747465723a206163636f756e7420646f6573206e6f60008201527f74206861766520656e6f7567682073686172657320746f20616c6c6f63617465602082015250565b7f5061796d656e7453706c69747465723a206e6f20706179656573000000000000600082015250565b7f5061796d656e7453706c69747465723a20736861726573206172652030000000600082015250565b7f7365636f6e646172790000000000000000000000000000000000000000000000600082015250565b7f4f463a452d303035000000000000000000000000000000000000000000000000600082015250565b6189a881617c61565b81146189b357600080fd5b50565b6189bf81617c73565b81146189ca57600080fd5b50565b6189d681617c85565b81146189e157600080fd5b50565b6189ed81617c91565b81146189f857600080fd5b50565b618a0481617cbd565b8114618a0f57600080fd5b50565b618a1b81617cef565b8114618a2657600080fd5b5056fea2646970667358221220d50031c541958ca21dbae6dceaa884008395719be704f74fa2189c043a3729c764736f6c63430008040033",
  "linkReferences": {},
  "deployedLinkReferences": {}
}