{
  "_format": "hh-sol-artifact-1",
  "contractName": "OpenFormat",
  "sourceName": "contracts/OpenFormat.sol",
  "abi": [
    {
      "inputs": [
        {
          "internalType": "string",
          "name": "name_",
          "type": "string"
        },
        {
          "internalType": "string",
          "name": "symbol_",
          "type": "string"
        },
        {
          "internalType": "string",
          "name": "metadataURI_",
          "type": "string"
        },
        {
          "internalType": "uint256",
          "name": "maxSupply_",
          "type": "uint256"
        },
        {
          "internalType": "uint256",
          "name": "mintingPrice_",
          "type": "uint256"
        }
      ],
      "stateMutability": "nonpayable",
      "type": "constructor"
    },
    {
      "anonymous": false,
      "inputs": [
        {
          "indexed": true,
          "internalType": "address",
          "name": "owner",
          "type": "address"
        },
        {
          "indexed": true,
          "internalType": "address",
          "name": "approved",
          "type": "address"
        },
        {
          "indexed": true,
          "internalType": "uint256",
          "name": "tokenId",
          "type": "uint256"
        }
      ],
      "name": "Approval",
      "type": "event"
    },
    {
      "anonymous": false,
      "inputs": [
        {
          "indexed": true,
          "internalType": "address",
          "name": "owner",
          "type": "address"
        },
        {
          "indexed": true,
          "internalType": "address",
          "name": "operator",
          "type": "address"
        },
        {
          "indexed": false,
          "internalType": "bool",
          "name": "approved",
          "type": "bool"
        }
      ],
      "name": "ApprovalForAll",
      "type": "event"
    },
    {
      "anonymous": false,
      "inputs": [
        {
          "indexed": true,
          "internalType": "address",
          "name": "contractAddress",
          "type": "address"
        }
      ],
      "name": "ApprovedDepositExtensionSet",
      "type": "event"
    },
    {
      "anonymous": false,
      "inputs": [
        {
          "indexed": true,
          "internalType": "uint256",
          "name": "amount",
          "type": "uint256"
        }
      ],
      "name": "ApprovedRoyaltyExtensionCustomPctSet",
      "type": "event"
    },
    {
      "anonymous": false,
      "inputs": [
        {
          "indexed": true,
          "internalType": "address",
          "name": "contractAddress",
          "type": "address"
        }
      ],
      "name": "ApprovedRoyaltyExtensionSet",
      "type": "event"
    },
    {
      "anonymous": false,
      "inputs": [
        {
          "indexed": true,
          "internalType": "string",
          "name": "commissionType",
          "type": "string"
        },
        {
          "indexed": true,
          "internalType": "address",
          "name": "to",
          "type": "address"
        },
        {
          "indexed": false,
          "internalType": "uint256",
          "name": "tokenId",
          "type": "uint256"
        },
        {
          "indexed": false,
          "internalType": "uint256",
          "name": "amount",
          "type": "uint256"
        }
      ],
      "name": "CommissionPaid",
      "type": "event"
    },
    {
      "anonymous": false,
      "inputs": [
        {
          "indexed": true,
          "internalType": "address",
          "name": "creator",
          "type": "address"
        },
        {
          "indexed": false,
          "internalType": "string",
          "name": "metadataURI",
          "type": "string"
        },
        {
          "indexed": false,
          "internalType": "string",
          "name": "symbol",
          "type": "string"
        },
        {
          "indexed": false,
          "internalType": "string",
          "name": "name",
          "type": "string"
        },
        {
          "indexed": false,
          "internalType": "uint256",
          "name": "maxSupply",
          "type": "uint256"
        },
        {
          "indexed": false,
          "internalType": "uint256",
          "name": "mintingPrice",
          "type": "uint256"
        }
      ],
      "name": "Created",
      "type": "event"
    },
    {
      "anonymous": false,
      "inputs": [
        {
          "indexed": true,
          "internalType": "contract IERC20",
          "name": "token",
          "type": "address"
        },
        {
          "indexed": false,
          "internalType": "address",
          "name": "to",
          "type": "address"
        },
        {
          "indexed": false,
          "internalType": "uint256",
          "name": "amount",
          "type": "uint256"
        }
      ],
      "name": "ERC20PaymentReleased",
      "type": "event"
    },
    {
      "anonymous": false,
      "inputs": [
        {
          "indexed": false,
          "internalType": "contract IERC20",
          "name": "token",
          "type": "address"
        },
        {
          "indexed": true,
          "internalType": "uint256",
          "name": "tokenId",
          "type": "uint256"
        },
        {
          "indexed": true,
          "internalType": "uint256",
          "name": "amount",
          "type": "uint256"
        }
      ],
      "name": "ERC20TokenBalanceWithdrawn",
      "type": "event"
    },
    {
      "anonymous": false,
      "inputs": [
        {
          "indexed": true,
          "internalType": "contract IERC20",
          "name": "token",
          "type": "address"
        },
        {
          "indexed": true,
          "internalType": "uint256",
          "name": "amount",
          "type": "uint256"
        }
      ],
      "name": "ERC20TotalDepositedAmountUpdated",
      "type": "event"
    },
    {
      "anonymous": false,
      "inputs": [
        {
          "indexed": true,
          "internalType": "uint256",
          "name": "amount",
          "type": "uint256"
        }
      ],
      "name": "MaxSupplySet",
      "type": "event"
    },
    {
      "anonymous": false,
      "inputs": [
        {
          "indexed": true,
          "internalType": "uint256",
          "name": "newTokenId",
          "type": "uint256"
        },
        {
          "indexed": true,
          "internalType": "address",
          "name": "owner",
          "type": "address"
        }
      ],
      "name": "Minted",
      "type": "event"
    },
    {
      "anonymous": false,
      "inputs": [
        {
          "indexed": true,
          "internalType": "uint256",
          "name": "amount",
          "type": "uint256"
        }
      ],
      "name": "MintingPriceSet",
      "type": "event"
    },
    {
      "anonymous": false,
      "inputs": [
        {
          "indexed": true,
          "internalType": "address",
          "name": "previousOwner",
          "type": "address"
        },
        {
          "indexed": true,
          "internalType": "address",
          "name": "newOwner",
          "type": "address"
        }
      ],
      "name": "OwnershipTransferred",
      "type": "event"
    },
    {
      "anonymous": false,
      "inputs": [
        {
          "indexed": false,
          "internalType": "bool",
          "name": "isPaused",
          "type": "bool"
        }
      ],
      "name": "PausedStateSet",
      "type": "event"
    },
    {
      "anonymous": false,
      "inputs": [
        {
          "indexed": false,
          "internalType": "address",
          "name": "account",
          "type": "address"
        },
        {
          "indexed": false,
          "internalType": "uint256",
          "name": "shares",
          "type": "uint256"
        }
      ],
      "name": "PayeeAdded",
      "type": "event"
    },
    {
      "anonymous": false,
      "inputs": [
        {
          "indexed": false,
          "internalType": "address",
          "name": "account",
          "type": "address"
        },
        {
          "indexed": false,
          "internalType": "uint256",
          "name": "shares",
          "type": "uint256"
        }
      ],
      "name": "PayeeRemoved",
      "type": "event"
    },
    {
      "anonymous": false,
      "inputs": [
        {
          "indexed": false,
          "internalType": "address",
          "name": "from",
          "type": "address"
        },
        {
          "indexed": false,
          "internalType": "uint256",
          "name": "amount",
          "type": "uint256"
        }
      ],
      "name": "PaymentReceived",
      "type": "event"
    },
    {
      "anonymous": false,
      "inputs": [
        {
          "indexed": false,
          "internalType": "address",
          "name": "to",
          "type": "address"
        },
        {
          "indexed": false,
          "internalType": "uint256",
          "name": "amount",
          "type": "uint256"
        }
      ],
      "name": "PaymentReleased",
      "type": "event"
    },
    {
      "anonymous": false,
      "inputs": [
        {
          "indexed": true,
          "internalType": "uint256",
          "name": "amount",
          "type": "uint256"
        }
      ],
      "name": "PrimaryCommissionSet",
      "type": "event"
    },
    {
      "anonymous": false,
      "inputs": [
        {
          "indexed": true,
          "internalType": "address",
          "name": "receiver",
          "type": "address"
        },
        {
          "indexed": true,
          "internalType": "uint256",
          "name": "percentage",
          "type": "uint256"
        }
      ],
      "name": "RoyaltiesSet",
      "type": "event"
    },
    {
      "anonymous": false,
      "inputs": [
        {
          "indexed": true,
          "internalType": "address",
          "name": "recipient",
          "type": "address"
        },
        {
          "indexed": true,
          "internalType": "uint256",
          "name": "amount",
          "type": "uint256"
        }
      ],
      "name": "RoyaltyPaid",
      "type": "event"
    },
    {
      "anonymous": false,
      "inputs": [
        {
          "indexed": true,
          "internalType": "uint256",
          "name": "tokenId",
          "type": "uint256"
        },
        {
          "indexed": false,
          "internalType": "uint256",
          "name": "salePrice",
          "type": "uint256"
        }
      ],
      "name": "SalePriceSet",
      "type": "event"
    },
    {
      "anonymous": false,
      "inputs": [
        {
          "indexed": true,
          "internalType": "uint256",
          "name": "amount",
          "type": "uint256"
        }
      ],
      "name": "SecondaryCommissionSet",
      "type": "event"
    },
    {
      "anonymous": false,
      "inputs": [
        {
          "indexed": true,
          "internalType": "uint256",
          "name": "tokenId",
          "type": "uint256"
        },
        {
          "indexed": true,
          "internalType": "address",
          "name": "oldOwner",
          "type": "address"
        },
        {
          "indexed": true,
          "internalType": "address",
          "name": "newOwner",
          "type": "address"
        },
        {
          "indexed": false,
          "internalType": "uint256",
          "name": "salePrice",
          "type": "uint256"
        }
      ],
      "name": "Sold",
      "type": "event"
    },
    {
      "anonymous": false,
      "inputs": [
        {
          "indexed": true,
          "internalType": "uint256",
          "name": "tokenId",
          "type": "uint256"
        },
        {
          "indexed": true,
          "internalType": "uint256",
          "name": "amount",
          "type": "uint256"
        }
      ],
      "name": "TokenBalanceWithdrawn",
      "type": "event"
    },
    {
      "anonymous": false,
      "inputs": [
        {
          "indexed": true,
          "internalType": "uint256",
          "name": "amount",
          "type": "uint256"
        }
      ],
      "name": "TotalDepositedAmountUpdated",
      "type": "event"
    },
    {
      "anonymous": false,
      "inputs": [
        {
          "indexed": true,
          "internalType": "address",
          "name": "from",
          "type": "address"
        },
        {
          "indexed": true,
          "internalType": "address",
          "name": "to",
          "type": "address"
        },
        {
          "indexed": true,
          "internalType": "uint256",
          "name": "tokenId",
          "type": "uint256"
        }
      ],
      "name": "Transfer",
      "type": "event"
    },
    {
      "inputs": [
        {
          "internalType": "address",
          "name": "",
          "type": "address"
        }
      ],
      "name": "_shares",
      "outputs": [
        {
          "internalType": "uint256",
          "name": "",
          "type": "uint256"
        }
      ],
      "stateMutability": "view",
      "type": "function"
    },
    {
      "inputs": [
        {
          "internalType": "address[]",
          "name": "accounts",
          "type": "address[]"
        },
        {
          "internalType": "uint256[]",
          "name": "shares_",
          "type": "uint256[]"
        }
      ],
      "name": "allocateShares",
      "outputs": [],
      "stateMutability": "nonpayable",
      "type": "function"
    },
    {
      "inputs": [
        {
          "internalType": "address",
          "name": "to",
          "type": "address"
        },
        {
          "internalType": "uint256",
          "name": "tokenId",
          "type": "uint256"
        }
      ],
      "name": "approve",
      "outputs": [],
      "stateMutability": "nonpayable",
      "type": "function"
    },
    {
      "inputs": [],
      "name": "approvedDepositExtension",
      "outputs": [
        {
          "internalType": "address",
          "name": "",
          "type": "address"
        }
      ],
      "stateMutability": "view",
      "type": "function"
    },
    {
      "inputs": [],
      "name": "approvedRoyaltyExtension",
      "outputs": [
        {
          "internalType": "address",
          "name": "",
          "type": "address"
        }
      ],
      "stateMutability": "view",
      "type": "function"
    },
    {
      "inputs": [
        {
          "internalType": "address",
          "name": "owner",
          "type": "address"
        }
      ],
      "name": "balanceOf",
      "outputs": [
        {
          "internalType": "uint256",
          "name": "",
          "type": "uint256"
        }
      ],
      "stateMutability": "view",
      "type": "function"
    },
    {
      "inputs": [
        {
          "internalType": "uint256",
          "name": "tokenId",
          "type": "uint256"
        }
      ],
      "name": "burn",
      "outputs": [],
      "stateMutability": "nonpayable",
      "type": "function"
    },
    {
      "inputs": [
        {
          "internalType": "uint256",
          "name": "tokenId",
          "type": "uint256"
        },
        {
          "internalType": "address",
          "name": "commissionAddress",
          "type": "address"
        }
      ],
      "name": "buy",
      "outputs": [
        {
          "internalType": "bool",
          "name": "",
          "type": "bool"
        }
      ],
      "stateMutability": "payable",
      "type": "function"
    },
    {
      "inputs": [
        {
          "internalType": "uint256",
          "name": "tokenId",
          "type": "uint256"
        }
      ],
      "name": "buy",
      "outputs": [
        {
          "internalType": "bool",
          "name": "",
          "type": "bool"
        }
      ],
      "stateMutability": "payable",
      "type": "function"
    },
    {
      "inputs": [],
      "name": "contractCreator",
      "outputs": [
        {
          "internalType": "address",
          "name": "",
          "type": "address"
        }
      ],
      "stateMutability": "view",
      "type": "function"
    },
    {
      "inputs": [
        {
          "internalType": "uint256",
          "name": "tokenId",
          "type": "uint256"
        }
      ],
      "name": "creatorOf",
      "outputs": [
        {
          "internalType": "address",
          "name": "",
          "type": "address"
        }
      ],
      "stateMutability": "view",
      "type": "function"
    },
    {
      "inputs": [
        {
          "internalType": "address",
          "name": "contractAddress",
          "type": "address"
        },
        {
          "internalType": "contract IERC20",
          "name": "token",
          "type": "address"
        },
        {
          "internalType": "uint256",
          "name": "amount",
          "type": "uint256"
        }
      ],
      "name": "deposit",
      "outputs": [],
      "stateMutability": "payable",
      "type": "function"
    },
    {
      "inputs": [
        {
          "internalType": "address",
          "name": "contractAddress",
          "type": "address"
        }
      ],
      "name": "deposit",
      "outputs": [],
      "stateMutability": "payable",
      "type": "function"
    },
    {
      "inputs": [
        {
          "internalType": "uint256",
          "name": "tokenId",
          "type": "uint256"
        }
      ],
      "name": "getApproved",
      "outputs": [
        {
          "internalType": "address",
          "name": "",
          "type": "address"
        }
      ],
      "stateMutability": "view",
      "type": "function"
    },
    {
      "inputs": [],
      "name": "getMaxSupply",
      "outputs": [
        {
          "internalType": "uint256",
          "name": "",
          "type": "uint256"
        }
      ],
      "stateMutability": "view",
      "type": "function"
    },
    {
      "inputs": [],
      "name": "getPrimaryCommissionPct",
      "outputs": [
        {
          "internalType": "uint256",
          "name": "",
          "type": "uint256"
        }
      ],
      "stateMutability": "view",
      "type": "function"
    },
    {
      "inputs": [],
      "name": "getSecondaryCommissionPct",
      "outputs": [
        {
          "internalType": "uint256",
          "name": "",
          "type": "uint256"
        }
      ],
      "stateMutability": "view",
      "type": "function"
    },
    {
      "inputs": [
        {
          "internalType": "address",
          "name": "caller",
          "type": "address"
        },
        {
          "internalType": "uint256",
          "name": "tokenId",
          "type": "uint256"
        }
      ],
      "name": "getSingleTokenBalance",
      "outputs": [
        {
          "internalType": "uint256",
          "name": "",
          "type": "uint256"
        }
      ],
      "stateMutability": "view",
      "type": "function"
    },
    {
      "inputs": [
        {
          "internalType": "contract IERC20",
          "name": "token",
          "type": "address"
        },
        {
          "internalType": "address",
          "name": "caller",
          "type": "address"
        },
        {
          "internalType": "uint256",
          "name": "tokenId",
          "type": "uint256"
        }
      ],
      "name": "getSingleTokenBalance",
      "outputs": [
        {
          "internalType": "uint256",
          "name": "",
          "type": "uint256"
        }
      ],
      "stateMutability": "view",
      "type": "function"
    },
    {
      "inputs": [
        {
          "internalType": "uint256",
          "name": "tokenId",
          "type": "uint256"
        }
      ],
      "name": "getTokenSalePrice",
      "outputs": [
        {
          "internalType": "uint256",
          "name": "",
          "type": "uint256"
        }
      ],
      "stateMutability": "view",
      "type": "function"
    },
    {
      "inputs": [],
      "name": "getTotalSupply",
      "outputs": [
        {
          "internalType": "uint256",
          "name": "",
          "type": "uint256"
        }
      ],
      "stateMutability": "view",
      "type": "function"
    },
    {
      "inputs": [
        {
          "internalType": "address",
          "name": "owner",
          "type": "address"
        },
        {
          "internalType": "address",
          "name": "operator",
          "type": "address"
        }
      ],
      "name": "isApprovedForAll",
      "outputs": [
        {
          "internalType": "bool",
          "name": "",
          "type": "bool"
        }
      ],
      "stateMutability": "view",
      "type": "function"
    },
    {
      "inputs": [],
      "name": "metadataURI",
      "outputs": [
        {
          "internalType": "string",
          "name": "",
          "type": "string"
        }
      ],
      "stateMutability": "view",
      "type": "function"
    },
    {
      "inputs": [],
      "name": "mint",
      "outputs": [
        {
          "internalType": "uint256",
          "name": "newTokenId",
          "type": "uint256"
        }
      ],
      "stateMutability": "payable",
      "type": "function"
    },
    {
      "inputs": [
        {
          "internalType": "address",
          "name": "commissionAddress",
          "type": "address"
        }
      ],
      "name": "mint",
      "outputs": [
        {
          "internalType": "uint256",
          "name": "newTokenId",
          "type": "uint256"
        }
      ],
      "stateMutability": "payable",
      "type": "function"
    },
    {
      "inputs": [],
      "name": "mintingPrice",
      "outputs": [
        {
          "internalType": "uint256",
          "name": "",
          "type": "uint256"
        }
      ],
      "stateMutability": "view",
      "type": "function"
    },
    {
      "inputs": [],
      "name": "name",
      "outputs": [
        {
          "internalType": "string",
          "name": "",
          "type": "string"
        }
      ],
      "stateMutability": "view",
      "type": "function"
    },
    {
      "inputs": [],
      "name": "owner",
      "outputs": [
        {
          "internalType": "address",
          "name": "",
          "type": "address"
        }
      ],
      "stateMutability": "view",
      "type": "function"
    },
    {
      "inputs": [
        {
          "internalType": "uint256",
          "name": "tokenId",
          "type": "uint256"
        }
      ],
      "name": "ownerOf",
      "outputs": [
        {
          "internalType": "address",
          "name": "",
          "type": "address"
        }
      ],
      "stateMutability": "view",
      "type": "function"
    },
    {
      "inputs": [],
      "name": "paused",
      "outputs": [
        {
          "internalType": "bool",
          "name": "",
          "type": "bool"
        }
      ],
      "stateMutability": "view",
      "type": "function"
    },
    {
      "inputs": [
        {
          "internalType": "uint256",
          "name": "index",
          "type": "uint256"
        }
      ],
      "name": "payee",
      "outputs": [
        {
          "internalType": "address",
          "name": "",
          "type": "address"
        }
      ],
      "stateMutability": "view",
      "type": "function"
    },
    {
      "inputs": [],
      "name": "primaryCommissionPct",
      "outputs": [
        {
          "internalType": "uint256",
          "name": "",
          "type": "uint256"
        }
      ],
      "stateMutability": "view",
      "type": "function"
    },
    {
      "inputs": [
        {
          "internalType": "address payable",
          "name": "account",
          "type": "address"
        }
      ],
      "name": "release",
      "outputs": [],
      "stateMutability": "nonpayable",
      "type": "function"
    },
    {
      "inputs": [
        {
          "internalType": "contract IERC20",
          "name": "token",
          "type": "address"
        },
        {
          "internalType": "address",
          "name": "account",
          "type": "address"
        }
      ],
      "name": "release",
      "outputs": [],
      "stateMutability": "nonpayable",
      "type": "function"
    },
    {
      "inputs": [
        {
          "internalType": "contract IERC20",
          "name": "token",
          "type": "address"
        },
        {
          "internalType": "address",
          "name": "account",
          "type": "address"
        }
      ],
      "name": "released",
      "outputs": [
        {
          "internalType": "uint256",
          "name": "",
          "type": "uint256"
        }
      ],
      "stateMutability": "view",
      "type": "function"
    },
    {
      "inputs": [
        {
          "internalType": "address",
          "name": "account",
          "type": "address"
        }
      ],
      "name": "released",
      "outputs": [
        {
          "internalType": "uint256",
          "name": "",
          "type": "uint256"
        }
      ],
      "stateMutability": "view",
      "type": "function"
    },
    {
      "inputs": [],
      "name": "renounceOwnership",
      "outputs": [],
      "stateMutability": "nonpayable",
      "type": "function"
    },
    {
      "inputs": [
        {
          "internalType": "uint256",
          "name": "",
          "type": "uint256"
        },
        {
          "internalType": "uint256",
          "name": "value",
          "type": "uint256"
        }
      ],
      "name": "royaltyInfo",
      "outputs": [
        {
          "internalType": "address",
          "name": "receiver",
          "type": "address"
        },
        {
          "internalType": "uint256",
          "name": "royaltyAmount",
          "type": "uint256"
        }
      ],
      "stateMutability": "view",
      "type": "function"
    },
    {
      "inputs": [
        {
          "internalType": "address",
          "name": "from",
          "type": "address"
        },
        {
          "internalType": "address",
          "name": "to",
          "type": "address"
        },
        {
          "internalType": "uint256",
          "name": "tokenId",
          "type": "uint256"
        }
      ],
      "name": "safeTransferFrom",
      "outputs": [],
      "stateMutability": "nonpayable",
      "type": "function"
    },
    {
      "inputs": [
        {
          "internalType": "address",
          "name": "from",
          "type": "address"
        },
        {
          "internalType": "address",
          "name": "to",
          "type": "address"
        },
        {
          "internalType": "uint256",
          "name": "tokenId",
          "type": "uint256"
        },
        {
          "internalType": "bytes",
          "name": "_data",
          "type": "bytes"
        }
      ],
      "name": "safeTransferFrom",
      "outputs": [],
      "stateMutability": "nonpayable",
      "type": "function"
    },
    {
      "inputs": [],
      "name": "secondaryCommissionPct",
      "outputs": [
        {
          "internalType": "uint256",
          "name": "",
          "type": "uint256"
        }
      ],
      "stateMutability": "view",
      "type": "function"
    },
    {
      "inputs": [
        {
          "internalType": "address",
          "name": "operator",
          "type": "address"
        },
        {
          "internalType": "bool",
          "name": "approved",
          "type": "bool"
        }
      ],
      "name": "setApprovalForAll",
      "outputs": [],
      "stateMutability": "nonpayable",
      "type": "function"
    },
    {
      "inputs": [
        {
          "internalType": "address",
          "name": "contractAddress_",
          "type": "address"
        }
      ],
      "name": "setApprovedDepositExtension",
      "outputs": [],
      "stateMutability": "nonpayable",
      "type": "function"
    },
    {
      "inputs": [
        {
          "internalType": "address",
          "name": "contractAddress_",
          "type": "address"
        }
      ],
      "name": "setApprovedRoyaltyExtension",
      "outputs": [],
      "stateMutability": "nonpayable",
      "type": "function"
    },
    {
      "inputs": [
        {
          "internalType": "uint256",
          "name": "amount_",
          "type": "uint256"
        }
      ],
      "name": "setApprovedRoyaltyExtensionCustomPct",
      "outputs": [],
      "stateMutability": "nonpayable",
      "type": "function"
    },
    {
      "inputs": [
        {
          "internalType": "uint256",
          "name": "_amount",
          "type": "uint256"
        }
      ],
      "name": "setMaxSupply",
      "outputs": [],
      "stateMutability": "nonpayable",
      "type": "function"
    },
    {
      "inputs": [
        {
          "internalType": "uint256",
          "name": "_amount",
          "type": "uint256"
        }
      ],
      "name": "setMintingPrice",
      "outputs": [],
      "stateMutability": "nonpayable",
      "type": "function"
    },
    {
      "inputs": [
        {
          "internalType": "uint256",
          "name": "amount_",
          "type": "uint256"
        }
      ],
      "name": "setPrimaryCommissionPct",
      "outputs": [],
      "stateMutability": "nonpayable",
      "type": "function"
    },
    {
      "inputs": [
        {
          "internalType": "address",
          "name": "royaltyReceiver",
          "type": "address"
        },
        {
          "internalType": "uint256",
          "name": "_royaltiesPct",
          "type": "uint256"
        }
      ],
      "name": "setRoyalties",
      "outputs": [],
      "stateMutability": "nonpayable",
      "type": "function"
    },
    {
      "inputs": [
        {
          "internalType": "uint256",
          "name": "amount_",
          "type": "uint256"
        }
      ],
      "name": "setSecondaryCommissionPct",
      "outputs": [],
      "stateMutability": "nonpayable",
      "type": "function"
    },
    {
      "inputs": [
        {
          "internalType": "uint256",
          "name": "tokenId",
          "type": "uint256"
        },
        {
          "internalType": "uint256",
          "name": "_salePrice",
          "type": "uint256"
        }
      ],
      "name": "setTokenSalePrice",
      "outputs": [],
      "stateMutability": "nonpayable",
      "type": "function"
    },
    {
      "inputs": [
        {
          "internalType": "address",
          "name": "account",
          "type": "address"
        }
      ],
      "name": "shares",
      "outputs": [
        {
          "internalType": "uint256",
          "name": "",
          "type": "uint256"
        }
      ],
      "stateMutability": "view",
      "type": "function"
    },
    {
      "inputs": [
        {
          "internalType": "bytes4",
          "name": "interfaceId",
          "type": "bytes4"
        }
      ],
      "name": "supportsInterface",
      "outputs": [
        {
          "internalType": "bool",
          "name": "",
          "type": "bool"
        }
      ],
      "stateMutability": "view",
      "type": "function"
    },
    {
      "inputs": [],
      "name": "symbol",
      "outputs": [
        {
          "internalType": "string",
          "name": "",
          "type": "string"
        }
      ],
      "stateMutability": "view",
      "type": "function"
    },
    {
      "inputs": [],
      "name": "togglePausedState",
      "outputs": [],
      "stateMutability": "nonpayable",
      "type": "function"
    },
    {
      "inputs": [
        {
          "internalType": "uint256",
          "name": "index",
          "type": "uint256"
        }
      ],
      "name": "tokenByIndex",
      "outputs": [
        {
          "internalType": "uint256",
          "name": "",
          "type": "uint256"
        }
      ],
      "stateMutability": "view",
      "type": "function"
    },
    {
      "inputs": [
        {
          "internalType": "address",
          "name": "owner",
          "type": "address"
        },
        {
          "internalType": "uint256",
          "name": "index",
          "type": "uint256"
        }
      ],
      "name": "tokenOfOwnerByIndex",
      "outputs": [
        {
          "internalType": "uint256",
          "name": "",
          "type": "uint256"
        }
      ],
      "stateMutability": "view",
      "type": "function"
    },
    {
      "inputs": [
        {
          "internalType": "uint256",
          "name": "tokenId",
          "type": "uint256"
        }
      ],
      "name": "tokenURI",
      "outputs": [
        {
          "internalType": "string",
          "name": "",
          "type": "string"
        }
      ],
      "stateMutability": "view",
      "type": "function"
    },
    {
      "inputs": [],
      "name": "totalDepositedAmount",
      "outputs": [
        {
          "internalType": "uint256",
          "name": "",
          "type": "uint256"
        }
      ],
      "stateMutability": "view",
      "type": "function"
    },
    {
      "inputs": [],
      "name": "totalDepositedReleased",
      "outputs": [
        {
          "internalType": "uint256",
          "name": "",
          "type": "uint256"
        }
      ],
      "stateMutability": "view",
      "type": "function"
    },
    {
      "inputs": [
        {
          "internalType": "contract IERC20",
          "name": "token",
          "type": "address"
        }
      ],
      "name": "totalReleased",
      "outputs": [
        {
          "internalType": "uint256",
          "name": "",
          "type": "uint256"
        }
      ],
      "stateMutability": "view",
      "type": "function"
    },
    {
      "inputs": [],
      "name": "totalReleased",
      "outputs": [
        {
          "internalType": "uint256",
          "name": "",
          "type": "uint256"
        }
      ],
      "stateMutability": "view",
      "type": "function"
    },
    {
      "inputs": [],
      "name": "totalSupply",
      "outputs": [
        {
          "internalType": "uint256",
          "name": "",
          "type": "uint256"
        }
      ],
      "stateMutability": "view",
      "type": "function"
    },
    {
      "inputs": [
        {
          "internalType": "address",
          "name": "from",
          "type": "address"
        },
        {
          "internalType": "address",
          "name": "to",
          "type": "address"
        },
        {
          "internalType": "uint256",
          "name": "tokenId",
          "type": "uint256"
        }
      ],
      "name": "transferFrom",
      "outputs": [],
      "stateMutability": "nonpayable",
      "type": "function"
    },
    {
      "inputs": [
        {
          "internalType": "address",
          "name": "newOwner",
          "type": "address"
        }
      ],
      "name": "transferOwnership",
      "outputs": [],
      "stateMutability": "nonpayable",
      "type": "function"
    },
    {
      "inputs": [
        {
          "internalType": "contract IERC20",
          "name": "token",
          "type": "address"
        },
        {
          "internalType": "address",
          "name": "contractAddress",
          "type": "address"
        },
        {
          "internalType": "uint256",
          "name": "tokenId",
          "type": "uint256"
        }
      ],
      "name": "withdraw",
      "outputs": [
        {
          "internalType": "uint256",
          "name": "",
          "type": "uint256"
        }
      ],
      "stateMutability": "payable",
      "type": "function"
    },
    {
      "inputs": [
        {
          "internalType": "address",
          "name": "contractAddress",
          "type": "address"
        },
        {
          "internalType": "uint256",
          "name": "tokenId",
          "type": "uint256"
        }
      ],
      "name": "withdraw",
      "outputs": [
        {
          "internalType": "uint256",
          "name": "",
          "type": "uint256"
        }
      ],
      "stateMutability": "payable",
      "type": "function"
    },
    {
      "stateMutability": "payable",
      "type": "receive"
    }
  ],
  "bytecode": "0x60806040523480156200001157600080fd5b506040516200502d3803806200502d83398101604081905262000034916200045d565b8451859085906200004d90600090602085019062000328565b5080516200006390600190602084019062000328565b505050620000806200007a620000fc60201b60201c565b62000100565b6200008d33606462000152565b8251620000a290602190602086019062000328565b50601c829055601d81905560405133907fc1d48f1736a531302a78b74590d0777fc17b24d24429d1e262591b9c4a10e55890620000e990869088908a90889088906200052b565b60405180910390a2505050505062000605565b3390565b600c80546001600160a01b038381166001600160a01b0319831681179093556040519116919082907f8be0079c531659141344cd1fd0a4f28419497f9722a3daafe3b4186f6b6457e090600090a35050565b6001600160a01b038216620001c35760405162461bcd60e51b815260206004820152602c60248201527f5061796d656e7453706c69747465723a206163636f756e74206973207468652060448201526b7a65726f206164647265737360a01b60648201526084015b60405180910390fd5b60008111620002155760405162461bcd60e51b815260206004820152601d60248201527f5061796d656e7453706c69747465723a207368617265732061726520300000006044820152606401620001ba565b6001600160a01b03821660009081526010602052604090205415620002915760405162461bcd60e51b815260206004820152602b60248201527f5061796d656e7453706c69747465723a206163636f756e7420616c726561647960448201526a206861732073686172657360a81b6064820152608401620001ba565b60128054600181019091557fbb8a6a4669ba250d26cd7a459eca9d215f8307e33aebe50379bc5a3617ec34440180546001600160a01b0319166001600160a01b038416908117909155600081815260106020908152604091829020849055815192835282018390527f40c340f65e17194d14ddddb073d3c9f888e3cb52b5aae0c6c7706b4fbc905fac910160405180910390a15050565b8280546200033690620005b2565b90600052602060002090601f0160209004810192826200035a5760008555620003a5565b82601f106200037557805160ff1916838001178555620003a5565b82800160010185558215620003a5579182015b82811115620003a557825182559160200191906001019062000388565b50620003b3929150620003b7565b5090565b5b80821115620003b35760008155600101620003b8565b600082601f830112620003df578081fd5b81516001600160401b0380821115620003fc57620003fc620005ef565b604051601f8301601f19908116603f01168101908282118183101715620004275762000427620005ef565b8160405283815286602085880101111562000440578485fd5b620004538460208301602089016200057f565b9695505050505050565b600080600080600060a0868803121562000475578081fd5b85516001600160401b03808211156200048c578283fd5b6200049a89838a01620003ce565b96506020880151915080821115620004b0578283fd5b620004be89838a01620003ce565b95506040880151915080821115620004d4578283fd5b50620004e388828901620003ce565b606088015160809098015196999598509695949350505050565b60008151808452620005178160208601602086016200057f565b601f01601f19169290920160200192915050565b60a0815260006200054060a0830188620004fd565b8281036020840152620005548188620004fd565b905082810360408401526200056a8187620004fd565b60608401959095525050608001529392505050565b60005b838110156200059c57818101518382015260200162000582565b83811115620005ac576000848401525b50505050565b600181811c90821680620005c757607f821691505b60208210811415620005e957634e487b7160e01b600052602260045260246000fd5b50919050565b634e487b7160e01b600052604160045260246000fd5b614a1880620006156000396000f3fe6080604052600436106103e85760003560e01c806370a0823111610208578063b34c8caf11610118578063d79779b2116100ab578063e985e9c51161007a578063e985e9c514610be9578063f2fde38b14610c32578063f340fa0114610c52578063f3fef3a314610c65578063fdf8967314610c7857600080fd5b8063d79779b214610b78578063d96a094a14610bae578063d9caed1214610bc1578063e33b7de314610bd457600080fd5b8063c4e41b22116100e7578063c4e41b2214610af8578063c87b56dd14610b0d578063ce7c2ac214610b2d578063d684beff14610b6357600080fd5b8063b34c8caf14610a6b578063b88d4fde14610a98578063bbf85e8014610ab8578063bcc1c53f14610ad857600080fd5b80638c7ea24b1161019b578063a22cb4651161016a578063a22cb465146109cb578063a2606334146109eb578063a7041d7a14610a0b578063ac4b4a1014610a2b578063ae9df3d414610a4b57600080fd5b80638c7ea24b146109425780638da5cb5b1461096257806395d89b41146109805780639852595c1461099557600080fd5b80638340f549116101d75780638340f549146108da5780638417b47f146108ed5780638859e91f1461090d5780638b83209b1461092257600080fd5b806370a0823114610872578063715018a6146108925780637deb6025146108a7578063814a76fe146108ba57600080fd5b80633e48d88f116103035780634f6ccce7116102965780635f011201116102655780635f011201146107e957806363167ced146108095780636352211e1461081f5780636a6278421461083f5780636f8b44b01461085257600080fd5b80634f6ccce714610759578063589a17431461077957806359aa03aa146107af5780635c975abb146107cf57600080fd5b8063438ea94a116102d2578063438ea94a146106ee57806347d91e031461070e57806348b75044146107245780634c0f38c21461074457600080fd5b80633e48d88f14610653578063406072a91461066857806342842e0e146106ae57806342966c68146106ce57600080fd5b806318eef3951161037b57806323b872dd1161034a57806323b872dd146105be5780632a55205a146105de5780632f745c591461061d57806335db70b51461063d57600080fd5b806318eef3951461053c57806318fbcdb314610569578063191655871461057e5780631e2f73b11461059e57600080fd5b8063095ea7b3116103b7578063095ea7b3146104da5780631249c58b146104fc578063172958941461051257806318160ddd1461052757600080fd5b806301ffc9a71461043657806303ee438c1461046b57806306fdde031461048d578063081812fc146104a257600080fd5b36610431577f6ef95f06320e7a25a04a175ca677b7052bdd97131872c2192525a629f51be77033604080516001600160a01b0390921682523460208301520160405180910390a1005b600080fd5b34801561044257600080fd5b50610456610451366004614582565b610c98565b60405190151581526020015b60405180910390f35b34801561047757600080fd5b50610480610ca9565b60405161046291906146c6565b34801561049957600080fd5b50610480610d37565b3480156104ae57600080fd5b506104c26104bd3660046145cc565b610dc9565b6040516001600160a01b039091168152602001610462565b3480156104e657600080fd5b506104fa6104f53660046144a5565b610e63565b005b610504610f79565b604051908152602001610462565b34801561051e57600080fd5b50600e54610504565b34801561053357600080fd5b50600954610504565b34801561054857600080fd5b506105046105573660046145cc565b60009081526018602052604090205490565b34801561057557600080fd5b50601f54610504565b34801561058a57600080fd5b506104fa6105993660046142f7565b610fe9565b3480156105aa57600080fd5b50601b546104c2906001600160a01b031681565b3480156105ca57600080fd5b506104fa6105d936600461434b565b61112b565b3480156105ea57600080fd5b506105fe6105f9366004614620565b61115d565b604080516001600160a01b039093168352602083019190915201610462565b34801561062957600080fd5b506105046106383660046144a5565b6111b2565b34801561064957600080fd5b50610504601d5481565b34801561065f57600080fd5b50600f54610504565b34801561067457600080fd5b506105046106833660046145ba565b6001600160a01b03918216600090815260146020908152604080832093909416825291909152205490565b3480156106ba57600080fd5b506104fa6106c936600461434b565b611248565b3480156106da57600080fd5b506104fa6106e93660046145cc565b611263565b3480156106fa57600080fd5b506105046107093660046144a5565b6112d4565b34801561071a57600080fd5b50610504601f5481565b34801561073057600080fd5b506104fa61073f3660046145ba565b61138c565b34801561075057600080fd5b50601c54610504565b34801561076557600080fd5b506105046107743660046145cc565b6115ac565b34801561078557600080fd5b506104c26107943660046145cc565b6000908152601760205260409020546001600160a01b031690565b3480156107bb57600080fd5b506104fa6107ca3660046144fd565b61164d565b3480156107db57600080fd5b506020546104569060ff1681565b3480156107f557600080fd5b506104fa6108043660046142f7565b611965565b34801561081557600080fd5b50610504601e5481565b34801561082b57600080fd5b506104c261083a3660046145cc565b611a37565b61050461084d3660046142f7565b611aae565b34801561085e57600080fd5b506104fa61086d3660046145cc565b611bac565b34801561087e57600080fd5b5061050461088d3660046142f7565b611c09565b34801561089e57600080fd5b506104fa611c90565b6104566108b53660046145fc565b611cc6565b3480156108c657600080fd5b506104fa6108d5366004614620565b611dc2565b6104fa6108e8366004614491565b611e30565b3480156108f957600080fd5b506104fa6109083660046145cc565b612085565b34801561091957600080fd5b50601e54610504565b34801561092e57600080fd5b506104c261093d3660046145cc565b6120e2565b34801561094e57600080fd5b506104fa61095d3660046144a5565b612120565b34801561096e57600080fd5b50600c546001600160a01b03166104c2565b34801561098c57600080fd5b50610480612201565b3480156109a157600080fd5b506105046109b03660046142f7565b6001600160a01b031660009081526011602052604090205490565b3480156109d757600080fd5b506104fa6109e6366004614464565b612210565b3480156109f757600080fd5b506104fa610a063660046145cc565b61221b565b348015610a1757600080fd5b506104fa610a263660046145cc565b61229a565b348015610a3757600080fd5b506019546104c2906001600160a01b031681565b348015610a5757600080fd5b50610504610a6636600461434b565b6123b5565b348015610a7757600080fd5b50610504610a863660046142f7565b60106020526000908152604090205481565b348015610aa457600080fd5b506104fa610ab336600461438b565b612478565b348015610ac457600080fd5b506104fa610ad33660046142f7565b6124b0565b348015610ae457600080fd5b50601a546104c2906001600160a01b031681565b348015610b0457600080fd5b50610504612524565b348015610b1957600080fd5b50610480610b283660046145cc565b61252f565b348015610b3957600080fd5b50610504610b483660046142f7565b6001600160a01b031660009081526010602052604090205490565b348015610b6f57600080fd5b506104fa612640565b348015610b8457600080fd5b50610504610b933660046142f7565b6001600160a01b031660009081526013602052604090205490565b610456610bbc3660046145cc565b6126b3565b610504610bcf36600461434b565b6126bf565b348015610be057600080fd5b50600d54610504565b348015610bf557600080fd5b50610456610c04366004614313565b6001600160a01b03918216600090815260056020908152604080832093909416825291909152205460ff1690565b348015610c3e57600080fd5b506104fa610c4d3660046142f7565b612887565b6104fa610c603660046142f7565b612922565b610504610c733660046144a5565b612a05565b348015610c8457600080fd5b506104fa610c933660046145cc565b612b8e565b6000610ca382612c0d565b92915050565b60218054610cb690614942565b80601f0160208091040260200160405190810160405280929190818152602001828054610ce290614942565b8015610d2f5780601f10610d0457610100808354040283529160200191610d2f565b820191906000526020600020905b815481529060010190602001808311610d1257829003601f168201915b505050505081565b606060008054610d4690614942565b80601f0160208091040260200160405190810160405280929190818152602001828054610d7290614942565b8015610dbf5780601f10610d9457610100808354040283529160200191610dbf565b820191906000526020600020905b815481529060010190602001808311610da257829003601f168201915b5050505050905090565b6000818152600260205260408120546001600160a01b0316610e475760405162461bcd60e51b815260206004820152602c60248201527f4552433732313a20617070726f76656420717565727920666f72206e6f6e657860448201526b34b9ba32b73a103a37b5b2b760a11b60648201526084015b60405180910390fd5b506000908152600460205260409020546001600160a01b031690565b6000610e6e82611a37565b9050806001600160a01b0316836001600160a01b03161415610edc5760405162461bcd60e51b815260206004820152602160248201527f4552433732313a20617070726f76616c20746f2063757272656e74206f776e656044820152603960f91b6064820152608401610e3e565b336001600160a01b0382161480610ef85750610ef88133610c04565b610f6a5760405162461bcd60e51b815260206004820152603860248201527f4552433732313a20617070726f76652063616c6c6572206973206e6f74206f7760448201527f6e6572206e6f7220617070726f76656420666f7220616c6c00000000000000006064820152608401610e3e565b610f748383612c32565b505050565b60205460009060ff1615610f9f5760405162461bcd60e51b8152600401610e3e906147de565b601d54341015610fdc5760405162461bcd60e51b81526020600482015260086024820152674f463a452d30303160c01b6044820152606401610e3e565b610fe4612ca0565b905090565b6001600160a01b03811660009081526010602052604090205461101e5760405162461bcd60e51b8152600401610e3e9061472b565b6000600f54600e5461103091906148ff565b600d5461103d90476148a8565b61104791906148ff565b90506000611074838361106f866001600160a01b031660009081526011602052604090205490565b612dab565b9050806110935760405162461bcd60e51b8152600401610e3e90614793565b6001600160a01b038316600090815260116020526040812080548392906110bb9084906148a8565b9250508190555080600d60008282546110d491906148a8565b909155506110e490508382612de7565b604080516001600160a01b0385168152602081018390527fdf20fd1e76bc69d672e4814fafb2c449bba3a5369d8359adf9e05e6fde87b056910160405180910390a1505050565b611136335b82612f00565b6111525760405162461bcd60e51b8152600401610e3e90614835565b610f74838383612ff3565b60408051808201909152600b546001600160a01b038116808352600160a01b90910462ffffff166020830181905290916000916127109061119e90866148e0565b6111a891906148c0565b9150509250929050565b60006111bd83611c09565b821061121f5760405162461bcd60e51b815260206004820152602b60248201527f455243373231456e756d657261626c653a206f776e657220696e646578206f7560448201526a74206f6620626f756e647360a81b6064820152608401610e3e565b506001600160a01b03919091166000908152600760209081526040808320938352929052205490565b610f7483838360405180602001604052806000815250612478565b8061126d33611130565b6112a45760405162461bcd60e51b815260206004820152600860248201526704f463a452d3031360c41b6044820152606401610e3e565b60205460ff16156112c75760405162461bcd60e51b8152600401610e3e906147de565b6112d08261319e565b5050565b6019546000906001600160a01b03166112ff5760405162461bcd60e51b8152600401610e3e90614886565b6019546040516321c754a560e11b81526001600160a01b03858116600483015260248201859052600092169063438ea94a9060440160206040518083038186803b15801561134c57600080fd5b505afa158015611360573d6000803e3d6000fd5b505050506040513d601f19601f8201168201806040525081019061138491906145e4565b949350505050565b6001600160a01b0381166000908152601060205260409020546113c15760405162461bcd60e51b8152600401610e3e9061472b565b6001600160a01b03821660009081526016602090815260408083205460159092528220546113ef91906148ff565b6001600160a01b0384166000908152601360205260409020546040516370a0823160e01b81523060048201526001600160a01b038616906370a082319060240160206040518083038186803b15801561144757600080fd5b505afa15801561145b573d6000803e3d6000fd5b505050506040513d601f19601f8201168201806040525081019061147f91906145e4565b61148991906148a8565b61149391906148ff565b905060006114cc838361106f87876001600160a01b03918216600090815260146020908152604080832093909416825291909152205490565b9050806114eb5760405162461bcd60e51b8152600401610e3e90614793565b6001600160a01b038085166000908152601460209081526040808320938716835292905290812080548392906115229084906148a8565b90915550506001600160a01b0384166000908152601360205260408120805483929061154f9084906148a8565b9091555061156090508484836131a7565b604080516001600160a01b038581168252602082018490528616917f3be5b7a71e84ed12875d241991c70855ac5817d847039e17a9d895c1ceb0f18a910160405180910390a250505050565b60006115b760095490565b821061161a5760405162461bcd60e51b815260206004820152602c60248201527f455243373231456e756d657261626c653a20676c6f62616c20696e646578206f60448201526b7574206f6620626f756e647360a01b6064820152608401610e3e565b6009828154811061163b57634e487b7160e01b600052603260045260246000fd5b90600052602060002001549050919050565b8281146116b75760405162461bcd60e51b815260206004820152603260248201527f5061796d656e7453706c69747465723a2070617965657320616e6420736861726044820152710cae640d8cadccee8d040dad2e6dac2e8c6d60731b6064820152608401610e3e565b826117045760405162461bcd60e51b815260206004820152601a60248201527f5061796d656e7453706c69747465723a206e6f207061796565730000000000006044820152606401610e3e565b60005b8381101561195e5782828281811061172f57634e487b7160e01b600052603260045260246000fd5b9050602002013560106000336001600160a01b03166001600160a01b031681526020019081526020016000205410156117d2576040805162461bcd60e51b81526020600482015260248101919091527f5061796d656e7453706c69747465723a206163636f756e7420646f6573206e6f60448201527f74206861766520656e6f7567682073686172657320746f20616c6c6f636174656064820152608401610e3e565b8282828181106117f257634e487b7160e01b600052603260045260246000fd5b336000908152601060209081526040909120546118169491909202013591506148ff565b336000908152601060208190526040822092909255908187878581811061184d57634e487b7160e01b600052603260045260246000fd5b905060200201602081019061186291906142f7565b6001600160a01b03166001600160a01b031681526020019081526020016000205411156118f2576118ed8585838181106118ac57634e487b7160e01b600052603260045260246000fd5b90506020020160208101906118c191906142f7565b8484848181106118e157634e487b7160e01b600052603260045260246000fd5b905060200201356131f9565b611956565b61195685858381811061191557634e487b7160e01b600052603260045260246000fd5b905060200201602081019061192a91906142f7565b84848481811061194a57634e487b7160e01b600052603260045260246000fd5b9050602002013561323d565b600101611707565b5050505050565b600c546001600160a01b0316331461198f5760405162461bcd60e51b8152600401610e3e90614800565b601980546001600160a01b0319166001600160a01b0383169081179091556040805163df2845b560e01b8152905163df2845b59160048082019260009290919082900301818387803b1580156119e457600080fd5b505af11580156119f8573d6000803e3d6000fd5b50506019546040516001600160a01b0390911692507f7947799a5d3281fff4a4457606b1aaa700d7ddecbe5b6143ff45b6c9866a8cc29150600090a250565b6000818152600260205260408120546001600160a01b031680610ca35760405162461bcd60e51b815260206004820152602960248201527f4552433732313a206f776e657220717565727920666f72206e6f6e657869737460448201526832b73a103a37b5b2b760b91b6064820152608401610e3e565b60205460009060ff1615611ad45760405162461bcd60e51b8152600401610e3e906147de565b601d54341015611b115760405162461bcd60e51b81526020600482015260086024820152674f463a452d30303160c01b6044820152606401610e3e565b601e5415611ba4576000611b27601e5434613409565b9050611b3c6001600160a01b03841682612de7565b604051667072696d61727960c81b81526001600160a01b0384169060070160405180910390207f522c39d7156b7dd9419c7853d069ac52655fb23c5ec017f319477ad7bef213aa611b8c60095490565b604080519182523460208301520160405180910390a3505b610ca3612ca0565b600c546001600160a01b03163314611bd65760405162461bcd60e51b8152600401610e3e90614800565b601c81905560405181907facc639f1ff310faf48650d02a82bd24c924e45a5050fc931245096ac57c309d990600090a250565b60006001600160a01b038216611c745760405162461bcd60e51b815260206004820152602a60248201527f4552433732313a2062616c616e636520717565727920666f7220746865207a65604482015269726f206164647265737360b01b6064820152608401610e3e565b506001600160a01b031660009081526003602052604090205490565b600c546001600160a01b03163314611cba5760405162461bcd60e51b8152600401610e3e90614800565b611cc46000613421565b565b60006001600160a01b038216611d095760405162461bcd60e51b815260206004820152600860248201526727a31d229698181960c11b6044820152606401610e3e565b600083815260186020526040812054601f54909190611d289083613409565b601f5490915015611da657611d466001600160a01b03851682612de7565b604051687365636f6e6461727960b81b81526001600160a01b0385169060090160408051918290038220888352346020840152917f522c39d7156b7dd9419c7853d069ac52655fb23c5ec017f319477ad7bef213aa910160405180910390a35b611db985611db43484613473565b61347f565b95945050505050565b60205460ff1615611de55760405162461bcd60e51b8152600401610e3e906147de565b81611def33611130565b611e265760405162461bcd60e51b815260206004820152600860248201526704f463a452d3031360c41b6044820152606401610e3e565b610f74838361369b565b604051636eb1769f60e11b81523360048201523060248201526000906001600160a01b0384169063dd62ed3e9060440160206040518083038186803b158015611e7857600080fd5b505afa158015611e8c573d6000803e3d6000fd5b505050506040513d601f19601f82011682018060405250810190611eb091906145e4565b90506000611ebd60095490565b6019549091506001600160a01b03868116911614611eed5760405162461bcd60e51b8152600401610e3e90614886565b82821015611f285760405162461bcd60e51b815260206004820152600860248201526713d18e914b4c0c0d60c21b6044820152606401610e3e565b6040516323b872dd60e01b8152336004820152306024820152604481018490526001600160a01b038516906323b872dd90606401602060405180830381600087803b158015611f7657600080fd5b505af1158015611f8a573d6000803e3d6000fd5b505050506040513d601f19601f82011682018060405250810190611fae9190614566565b5060195460405162f9874d60e31b81526001600160a01b0386811660048301526024820186905260448201849052909116906307cc3a6890606401600060405180830381600087803b15801561200357600080fd5b505af1158015612017573d6000803e3d6000fd5b505050506001600160a01b038416600090815260156020526040812080548592906120439084906148a8565b909155505060405134906001600160a01b038616907f8d5b2df7eba39b5e2a616e9c89e0c253c36b92c638f32ad4f4e2bedc0ee5ba7d90600090a35050505050565b600c546001600160a01b031633146120af5760405162461bcd60e51b8152600401610e3e90614800565b601d81905560405181907f02dd4e125a287edc7a6a887552dc7be35f4fdabe8afd6ae78f98b448d4e1a86690600090a250565b60006012828154811061210557634e487b7160e01b600052603260045260246000fd5b6000918252602090912001546001600160a01b031692915050565b600c546001600160a01b0316331461214a5760405162461bcd60e51b8152600401610e3e90614800565b600081116121855760405162461bcd60e51b815260206004820152600860248201526713d18e914b4c0c0d60c21b6044820152606401610e3e565b6001600160a01b0382166121c65760405162461bcd60e51b81526020600482015260086024820152674f463a452d30303560c01b6044820152606401610e3e565b6121d082826136ec565b604051819030907f908669f35f6fb3977a956ba70597841fe541d1e8491ca3c025161e258d3bfdb690600090a35050565b606060018054610d4690614942565b6112d0338383613788565b600c546001600160a01b031633146122455760405162461bcd60e51b8152600401610e3e90614800565b6127108111156122675760405162461bcd60e51b8152600401610e3e90614771565b601f81905560405181907f905c2604b04c9fa2b09e05ab34ccae93abf21f5edd19a139c406fe9398f752a090600090a250565b600c546001600160a01b031633146122c45760405162461bcd60e51b8152600401610e3e90614800565b6127108111156122e65760405162461bcd60e51b8152600401610e3e90614771565b601a546001600160a01b03166123295760405162461bcd60e51b81526020600482015260086024820152674f463a452d30303760c01b6044820152606401610e3e565b601a5460405163074ae54d60e01b8152600481018390526001600160a01b039091169063074ae54d90602401600060405180830381600087803b15801561236f57600080fd5b505af1158015612383573d6000803e3d6000fd5b50506040518392507f67c41861347f4f7588ff0bd41c40943750a52c35859b99dac7d30beda950088c9150600090a250565b6019546000906001600160a01b03166123e05760405162461bcd60e51b8152600401610e3e90614886565b601954604051632ba77cf560e21b81526001600160a01b038681166004830152858116602483015260448201859052600092169063ae9df3d49060640160206040518083038186803b15801561243557600080fd5b505afa158015612449573d6000803e3d6000fd5b505050506040513d601f19601f8201168201806040525081019061246d91906145e4565b9150505b9392505050565b6124823383612f00565b61249e5760405162461bcd60e51b8152600401610e3e90614835565b6124aa84848484613857565b50505050565b600c546001600160a01b031633146124da5760405162461bcd60e51b8152600401610e3e90614800565b601a80546001600160a01b0319166001600160a01b0383169081179091556040517f5db3fb7335b6ec1dfcfd94d09bc1904829d1b8fdba0dc0ad6ee68d71650652ae90600090a250565b6000610fe460095490565b6000818152600260205260409020546060906001600160a01b03166125ae5760405162461bcd60e51b815260206004820152602f60248201527f4552433732314d657461646174613a2055524920717565727920666f72206e6f60448201526e3732bc34b9ba32b73a103a37b5b2b760891b6064820152608401610e3e565b602180546125bb90614942565b80601f01602080910402602001604051908101604052809291908181526020018280546125e790614942565b80156126345780601f1061260957610100808354040283529160200191612634565b820191906000526020600020905b81548152906001019060200180831161261757829003601f168201915b50505050509050919050565b600c546001600160a01b0316331461266a5760405162461bcd60e51b8152600401610e3e90614800565b6020805460ff8082161560ff199092168217835560405191161581527fa9bfed3d98385b3777389e321dbde773cf7d335fa604fefbae3dca93564f5586910160405180910390a1565b6000610ca3823461347f565b6019546000906001600160a01b038481169116146126ef5760405162461bcd60e51b8152600401610e3e90614886565b60006126fa83611a37565b601954604051632ba77cf560e21b81526001600160a01b038881166004830152306024830152604482018790529293506000929091169063ae9df3d49060640160206040518083038186803b15801561275257600080fd5b505afa158015612766573d6000803e3d6000fd5b505050506040513d601f19601f8201168201806040525081019061278a91906145e4565b6001600160a01b0387166000908152601660205260408120805492935083929091906127b79084906148a8565b909155505060195460405163fdb047b160e01b81526001600160a01b03888116600483015260006024830152604482018790529091169063fdb047b190606401600060405180830381600087803b15801561281157600080fd5b505af1158015612825573d6000803e3d6000fd5b5061283e925050506001600160a01b03871683836131a7565b6040516001600160a01b0387168152819085907f12ff21bbdebdfd7045c78e9aa73dc7777831b172e9097bc41bedd40f841c0afd9060200160405180910390a395945050505050565b600c546001600160a01b031633146128b15760405162461bcd60e51b8152600401610e3e90614800565b6001600160a01b0381166129165760405162461bcd60e51b815260206004820152602660248201527f4f776e61626c653a206e6577206f776e657220697320746865207a65726f206160448201526564647265737360d01b6064820152608401610e3e565b61291f81613421565b50565b6019546001600160a01b0382811691161461294f5760405162461bcd60e51b8152600401610e3e90614886565b600061295a60095490565b60195460405163a64271f160e01b8152346004820152602481018390529192506001600160a01b03169063a64271f190604401600060405180830381600087803b1580156129a757600080fd5b505af11580156129bb573d6000803e3d6000fd5b5050505034600e60008282546129d191906148a8565b909155505060405134907f3903d05344bfbe173a5084aa4d3a99187eff3f7bfb3db786c814e7eddd9b3cd590600090a25050565b6019546000906001600160a01b03848116911614612a355760405162461bcd60e51b8152600401610e3e90614886565b6000612a4083611a37565b6019546040516321c754a560e11b8152306004820152602481018690529192506000916001600160a01b039091169063438ea94a9060440160206040518083038186803b158015612a9057600080fd5b505afa158015612aa4573d6000803e3d6000fd5b505050506040513d601f19601f82011682018060405250810190612ac891906145e4565b9050612add6001600160a01b03831682612de7565b80600f6000828254612aef91906148a8565b9091555050601954604051630e6621ff60e11b815260006004820152602481018690526001600160a01b0390911690631ccc43fe90604401600060405180830381600087803b158015612b4157600080fd5b505af1158015612b55573d6000803e3d6000fd5b50506040518392508691507fd2e9df57c00b23ba7ee3ed404df528700b0f0990b7292602d48fb3b9764e507690600090a3949350505050565b600c546001600160a01b03163314612bb85760405162461bcd60e51b8152600401610e3e90614800565b612710811115612bda5760405162461bcd60e51b8152600401610e3e90614771565b601e81905560405181907fb27a19d53c022a09a344f42378e7d232d66b643564218cbfc93c98c93a2bc7af90600090a250565b60006001600160e01b0319821663780e9d6360e01b1480610ca35750610ca38261388a565b600081815260046020526040902080546001600160a01b0319166001600160a01b0384169081179091558190612c6782611a37565b6001600160a01b03167f8c5be1e5ebec7d5bd14f71427d1e84f3dd0314c0f7b2291e5b200ac8c7c3b92560405160405180910390a45050565b6000612cab60095490565b9050612cc73382604051806020016040528060008152506138da565b600081815260176020526040902080546001600160a01b0319163317905560218054612d7b918391612cf890614942565b80601f0160208091040260200160405190810160405280929190818152602001828054612d2490614942565b8015612d715780601f10612d4657610100808354040283529160200191612d71565b820191906000526020600020905b815481529060010190602001808311612d5457829003601f168201915b505050505061390d565b604051339082907fb9203d657e9c0ec8274c818292ab0f58b04e1970050716891770eb1bab5d655e90600090a390565b6001600160a01b0383166000908152601060205260408120548290606490612dd390866148e0565b612ddd91906148c0565b61138491906148ff565b80471015612e375760405162461bcd60e51b815260206004820152601d60248201527f416464726573733a20696e73756666696369656e742062616c616e63650000006044820152606401610e3e565b6000826001600160a01b03168260405160006040518083038185875af1925050503d8060008114612e84576040519150601f19603f3d011682016040523d82523d6000602084013e612e89565b606091505b5050905080610f745760405162461bcd60e51b815260206004820152603a60248201527f416464726573733a20756e61626c6520746f2073656e642076616c75652c207260448201527f6563697069656e74206d617920686176652072657665727465640000000000006064820152608401610e3e565b6000818152600260205260408120546001600160a01b0316612f795760405162461bcd60e51b815260206004820152602c60248201527f4552433732313a206f70657261746f7220717565727920666f72206e6f6e657860448201526b34b9ba32b73a103a37b5b2b760a11b6064820152608401610e3e565b6000612f8483611a37565b9050806001600160a01b0316846001600160a01b03161480612fbf5750836001600160a01b0316612fb484610dc9565b6001600160a01b0316145b8061138457506001600160a01b0380821660009081526005602090815260408083209388168352929052205460ff16611384565b826001600160a01b031661300682611a37565b6001600160a01b03161461306e5760405162461bcd60e51b815260206004820152602960248201527f4552433732313a207472616e73666572206f6620746f6b656e2074686174206960448201526839903737ba1037bbb760b91b6064820152608401610e3e565b6001600160a01b0382166130d05760405162461bcd60e51b8152602060048201526024808201527f4552433732313a207472616e7366657220746f20746865207a65726f206164646044820152637265737360e01b6064820152608401610e3e565b6130db8383836139a7565b6130e6600082612c32565b6001600160a01b038316600090815260036020526040812080546001929061310f9084906148ff565b90915550506001600160a01b038216600090815260036020526040812080546001929061313d9084906148a8565b909155505060008181526002602052604080822080546001600160a01b0319166001600160a01b0386811691821790925591518493918716917fddf252ad1be2c89b69c2b068fc378daa952ba7f163c4a11628f55a4df523b3ef91a4505050565b61291f816139b2565b604080516001600160a01b038416602482015260448082018490528251808303909101815260649091019091526020810180516001600160e01b031663a9059cbb60e01b179052610f749084906139f2565b6001600160a01b03821660009081526010602052604090205461321d9082906148a8565b6001600160a01b0390921660009081526010602052604090209190915550565b6001600160a01b0382166132a85760405162461bcd60e51b815260206004820152602c60248201527f5061796d656e7453706c69747465723a206163636f756e74206973207468652060448201526b7a65726f206164647265737360a01b6064820152608401610e3e565b600081116132f85760405162461bcd60e51b815260206004820152601d60248201527f5061796d656e7453706c69747465723a207368617265732061726520300000006044820152606401610e3e565b6001600160a01b038216600090815260106020526040902054156133725760405162461bcd60e51b815260206004820152602b60248201527f5061796d656e7453706c69747465723a206163636f756e7420616c726561647960448201526a206861732073686172657360a81b6064820152608401610e3e565b60128054600181019091557fbb8a6a4669ba250d26cd7a459eca9d215f8307e33aebe50379bc5a3617ec34440180546001600160a01b0319166001600160a01b038416908117909155600081815260106020908152604091829020849055815192835282018390527f40c340f65e17194d14ddddb073d3c9f888e3cb52b5aae0c6c7706b4fbc905fac910160405180910390a15050565b600061247161271061341b8486613ac4565b90613ad0565b600c80546001600160a01b038381166001600160a01b0319831681179093556040519116919082907f8be0079c531659141344cd1fd0a4f28419497f9722a3daafe3b4186f6b6457e090600090a35050565b600061247182846148ff565b600082815260186020526040812054806134c65760405162461bcd60e51b81526020600482015260086024820152674f463a452d30303760c01b6044820152606401610e3e565b808310156135015760405162461bcd60e51b815260206004820152600860248201526709e8c748a5a6060760c31b6044820152606401610e3e565b600061350c85611a37565b905060003360405163152a902d60e11b81526000600482018190526024820186905291925081903090632a55205a90604401604080518083038186803b15801561355557600080fd5b505afa158015613569573d6000803e3d6000fd5b505050506040513d601f19601f8201168201806040525081019061358d91906144d0565b601a5491935091506001600160a01b0316156135be57601a546135b9906001600160a01b031682612de7565b61360e565b801561360e576135d76001600160a01b03831682612de7565b60405181906001600160a01b038416907fbc86de696edc3350c664d50abf25f24e7e1251f1469ad925b25fe36927270d4390600090a35b61362b61361b8683613473565b6001600160a01b03861690612de7565b826001600160a01b0316846001600160a01b0316897f23f50d55776d8003622a982ade45a6c7f083116c8dbbcd980f59942f440badb18860405161367191815260200190565b60405180910390a461368285613adc565b61368d84848a612ff3565b506001979650505050505050565b600082815260186020526040908190208290555182907fe23ea816dce6d7f5c0b85cbd597e7c3b97b2453791152c0b94e5e5c5f314d2f0906136e09084815260200190565b60405180910390a25050565b61271081111561373e5760405162461bcd60e51b815260206004820152601a60248201527f45524332393831526f79616c746965733a20546f6f20686967680000000000006044820152606401610e3e565b604080518082019091526001600160a01b0390921680835262ffffff9091166020909201829052600b8054600160a01b9093026001600160b81b0319909316909117919091179055565b816001600160a01b0316836001600160a01b031614156137ea5760405162461bcd60e51b815260206004820152601960248201527f4552433732313a20617070726f766520746f2063616c6c6572000000000000006044820152606401610e3e565b6001600160a01b03838116600081815260056020908152604080832094871680845294825291829020805460ff191686151590811790915591519182527f17307eab39ab6107e8899845ad3d59bd9653f200f220920489ca2b5937696c31910160405180910390a3505050565b613862848484612ff3565b61386e84848484613afa565b6124aa5760405162461bcd60e51b8152600401610e3e906146d9565b60006001600160e01b031982166380ac58cd60e01b14806138bb57506001600160e01b03198216635b5e139f60e01b145b80610ca357506301ffc9a760e01b6001600160e01b0319831614610ca3565b6138e48383613c07565b6138f16000848484613afa565b610f745760405162461bcd60e51b8152600401610e3e906146d9565b6000828152600260205260409020546001600160a01b03166139885760405162461bcd60e51b815260206004820152602e60248201527f45524337323155524953746f726167653a2055524920736574206f66206e6f6e60448201526d32bc34b9ba32b73a103a37b5b2b760911b6064820152608401610e3e565b60008281526006602090815260409091208251610f74928401906141de565b610f74838383613d55565b6139bb81613e0d565b600081815260066020526040902080546139d490614942565b15905061291f57600081815260066020526040812061291f91614262565b6000613a47826040518060400160405280602081526020017f5361666545524332303a206c6f772d6c6576656c2063616c6c206661696c6564815250856001600160a01b0316613eb49092919063ffffffff16565b805190915015610f745780806020019051810190613a659190614566565b610f745760405162461bcd60e51b815260206004820152602a60248201527f5361666545524332303a204552433230206f7065726174696f6e20646964206e6044820152691bdd081cdd58d8d9595960b21b6064820152608401610e3e565b600061247182846148e0565b600061247182846148c0565b6000613ae83483613473565b905080156112d0576112d03382612de7565b60006001600160a01b0384163b15613bfc57604051630a85bd0160e11b81526001600160a01b0385169063150b7a0290613b3e903390899088908890600401614689565b602060405180830381600087803b158015613b5857600080fd5b505af1925050508015613b88575060408051601f3d908101601f19168201909252613b859181019061459e565b60015b613be2573d808015613bb6576040519150601f19603f3d011682016040523d82523d6000602084013e613bbb565b606091505b508051613bda5760405162461bcd60e51b8152600401610e3e906146d9565b805181602001fd5b6001600160e01b031916630a85bd0160e11b149050611384565b506001949350505050565b6001600160a01b038216613c5d5760405162461bcd60e51b815260206004820181905260248201527f4552433732313a206d696e7420746f20746865207a65726f20616464726573736044820152606401610e3e565b6000818152600260205260409020546001600160a01b031615613cc25760405162461bcd60e51b815260206004820152601c60248201527f4552433732313a20746f6b656e20616c7265616479206d696e746564000000006044820152606401610e3e565b613cce600083836139a7565b6001600160a01b0382166000908152600360205260408120805460019290613cf79084906148a8565b909155505060008181526002602052604080822080546001600160a01b0319166001600160a01b03861690811790915590518392907fddf252ad1be2c89b69c2b068fc378daa952ba7f163c4a11628f55a4df523b3ef908290a45050565b6001600160a01b038316613db057613dab81600980546000838152600a60205260408120829055600182018355919091527f6e1540171b6c0c960b71a7020d9f60077f6af931a8bbf590da0223dacf75c7af0155565b613dd3565b816001600160a01b0316836001600160a01b031614613dd357613dd38382613ec3565b6001600160a01b038216613dea57610f7481613f60565b826001600160a01b0316826001600160a01b031614610f7457610f748282614039565b6000613e1882611a37565b9050613e26816000846139a7565b613e31600083612c32565b6001600160a01b0381166000908152600360205260408120805460019290613e5a9084906148ff565b909155505060008281526002602052604080822080546001600160a01b0319169055518391906001600160a01b038416907fddf252ad1be2c89b69c2b068fc378daa952ba7f163c4a11628f55a4df523b3ef908390a45050565b6060611384848460008561407d565b60006001613ed084611c09565b613eda91906148ff565b600083815260086020526040902054909150808214613f2d576001600160a01b03841660009081526007602090815260408083208584528252808320548484528184208190558352600890915290208190555b5060009182526008602090815260408084208490556001600160a01b039094168352600781528383209183525290812055565b600954600090613f72906001906148ff565b6000838152600a602052604081205460098054939450909284908110613fa857634e487b7160e01b600052603260045260246000fd5b906000526020600020015490508060098381548110613fd757634e487b7160e01b600052603260045260246000fd5b6000918252602080832090910192909255828152600a9091526040808220849055858252812055600980548061401d57634e487b7160e01b600052603160045260246000fd5b6001900381819060005260206000200160009055905550505050565b600061404483611c09565b6001600160a01b039093166000908152600760209081526040808320868452825280832085905593825260089052919091209190915550565b6060824710156140de5760405162461bcd60e51b815260206004820152602660248201527f416464726573733a20696e73756666696369656e742062616c616e636520666f6044820152651c8818d85b1b60d21b6064820152608401610e3e565b843b61412c5760405162461bcd60e51b815260206004820152601d60248201527f416464726573733a2063616c6c20746f206e6f6e2d636f6e74726163740000006044820152606401610e3e565b600080866001600160a01b03168587604051614148919061466d565b60006040518083038185875af1925050503d8060008114614185576040519150601f19603f3d011682016040523d82523d6000602084013e61418a565b606091505b509150915061419a8282866141a5565b979650505050505050565b606083156141b4575081612471565b8251156141c45782518084602001fd5b8160405162461bcd60e51b8152600401610e3e91906146c6565b8280546141ea90614942565b90600052602060002090601f01602090048101928261420c5760008555614252565b82601f1061422557805160ff1916838001178555614252565b82800160010185558215614252579182015b82811115614252578251825591602001919060010190614237565b5061425e929150614298565b5090565b50805461426e90614942565b6000825580601f1061427e575050565b601f01602090049060005260206000209081019061291f91905b5b8082111561425e5760008155600101614299565b60008083601f8401126142be578182fd5b50813567ffffffffffffffff8111156142d5578182fd5b6020830191508360208260051b85010111156142f057600080fd5b9250929050565b600060208284031215614308578081fd5b8135612471816149a9565b60008060408385031215614325578081fd5b8235614330816149a9565b91506020830135614340816149a9565b809150509250929050565b60008060006060848603121561435f578081fd5b833561436a816149a9565b9250602084013561437a816149a9565b929592945050506040919091013590565b600080600080608085870312156143a0578081fd5b84356143ab816149a9565b935060208501356143bb816149a9565b925060408501359150606085013567ffffffffffffffff808211156143de578283fd5b818701915087601f8301126143f1578283fd5b81358181111561440357614403614993565b604051601f8201601f19908116603f0116810190838211818310171561442b5761442b614993565b816040528281528a6020848701011115614443578586fd5b82602086016020830137918201602001949094529598949750929550505050565b60008060408385031215614476578182fd5b8235614481816149a9565b91506020830135614340816149be565b60008060006060848603121561435f578283fd5b600080604083850312156144b7578182fd5b82356144c2816149a9565b946020939093013593505050565b600080604083850312156144e2578182fd5b82516144ed816149a9565b6020939093015192949293505050565b60008060008060408587031215614512578384fd5b843567ffffffffffffffff80821115614529578586fd5b614535888389016142ad565b9096509450602087013591508082111561454d578384fd5b5061455a878288016142ad565b95989497509550505050565b600060208284031215614577578081fd5b8151612471816149be565b600060208284031215614593578081fd5b8135612471816149cc565b6000602082840312156145af578081fd5b8151612471816149cc565b60008060408385031215614325578182fd5b6000602082840312156145dd578081fd5b5035919050565b6000602082840312156145f5578081fd5b5051919050565b6000806040838503121561460e578182fd5b823591506020830135614340816149a9565b60008060408385031215614632578182fd5b50508035926020909101359150565b60008151808452614659816020860160208601614916565b601f01601f19169290920160200192915050565b6000825161467f818460208701614916565b9190910192915050565b6001600160a01b03858116825284166020820152604081018390526080606082018190526000906146bc90830184614641565b9695505050505050565b6020815260006124716020830184614641565b60208082526032908201527f4552433732313a207472616e7366657220746f206e6f6e20455243373231526560408201527131b2b4bb32b91034b6b83632b6b2b73a32b960711b606082015260800190565b60208082526026908201527f5061796d656e7453706c69747465723a206163636f756e7420686173206e6f2060408201526573686172657360d01b606082015260800190565b60208082526008908201526727a31d229698181b60c11b604082015260600190565b6020808252602b908201527f5061796d656e7453706c69747465723a206163636f756e74206973206e6f742060408201526a191d59481c185e5b595b9d60aa1b606082015260800190565b6020808252600890820152674f463a452d30303960c01b604082015260600190565b6020808252818101527f4f776e61626c653a2063616c6c6572206973206e6f7420746865206f776e6572604082015260600190565b60208082526031908201527f4552433732313a207472616e736665722063616c6c6572206973206e6f74206f6040820152701ddb995c881b9bdc88185c1c1c9bdd9959607a1b606082015260800190565b6020808252600890820152674f463a452d30303360c01b604082015260600190565b600082198211156148bb576148bb61497d565b500190565b6000826148db57634e487b7160e01b81526012600452602481fd5b500490565b60008160001904831182151516156148fa576148fa61497d565b500290565b6000828210156149115761491161497d565b500390565b60005b83811015614931578181015183820152602001614919565b838111156124aa5750506000910152565b600181811c9082168061495657607f821691505b6020821081141561497757634e487b7160e01b600052602260045260246000fd5b50919050565b634e487b7160e01b600052601160045260246000fd5b634e487b7160e01b600052604160045260246000fd5b6001600160a01b038116811461291f57600080fd5b801515811461291f57600080fd5b6001600160e01b03198116811461291f57600080fdfea26469706673582212205dd1eb3bebc30a3b550c93aed3062f50bf3de0276fa58a27bd6269b8d99d5fad64736f6c63430008040033",
  "linkReferences": {},
  "deployedLinkReferences": {}
}